:020000040800F2
:10000000A04B00205D020008132B00083D270008CC
:10001000112B0008BD090008413C00080000000049
:100020000000000000000000000000009D0100082A
:10003000C50A000800000000F9010008092D0008A9
:1000400077020008770200087702000877020008AC
:10005000770200087702000877020008770200089C
:10006000770200087702000877020008770200088C
:10007000C1090008CD090008D90900087702000865
:10008000E5090008F1090008770200087702000876
:10009000770200087702000877020008770200085C
:1000A000770200087702000877020008770200084C
:1000B000770200087702000877020008770200083C
:1000C000770200087702000877020008770200082C
:1000D00077020008793A0008113B0008A93B0008A4
:1000E000770200087702000877020008770200080C
:1000F000770200087702000877020008FD0900086F
:1001000077020008770200087702000877020008EB
:10011000A136000845370008112E000877020008B4
:10012000090A000877020008770200087702000831
:1001300077020008770200087702000877020008BB
:1001400077020008770200087702000877020008AB
:10015000150A0008770200087702000877020008F5
:10016000770200087702000877020008770200088B
:1001700077020008770200087702000800000000FC
:100180007702000877020008DFF80CD000F0FEFAD2
:1001900000480047813C0008A04B00202C4B196808
:1001A0000868B0E8F04F80F30988BFF36F8F4FF015
:1001B000000080F3118870470000000008480068C4
:1001C000006880F308884FF0000080F3148862B65E
:1001D00061B6BFF34F8FBFF36F8F00DF00BF00BF6B
:1001E00008ED00E0DFF80C00016841F470010160E7
:1001F000704700BF88ED00E0EFF30980BFF36F8F19
:10020000134B1A681EF0100F08BF20ED108A20E96A
:10021000F04F106009B44FF0500080F31188BFF325
:100220004F8FBFF36F8F04F07DF94FF0000080F324
:10023000118809BC19680868B0E8F04F1EF0100F6B
:1002400008BFB0EC108A80F30988BFF36F8F704746
:10025000A8010020EFF305807047000006488047A2
:1002600006480047FEE7FEE7FEE7FEE7FEE7FEE79B
:10027000FEE7FEE7FEE7FEE7BD2D00088901000866
:100280002DE9F05F0546002092469B4688460646CB
:10029000814640241BE0284641464746224600F05E
:1002A000BFF953465A46C01A914110D31146184619
:1002B000224600F0A6F92D1A67EB01084F462246A8
:1002C0000120002100F09DF917EB00094E41201E8E
:1002D000A4F10104DFDC484631462A464346BDE826
:1002E000F09F40EA01039B0703D009E008C9121FF1
:1002F00008C0042AFAD203E011F8013B00F8013BE0
:10030000521EF9D27047D2B201E000F8012B491E0B
:10031000FBD270470022F6E710B513460A460446A2
:100320001946FFF7F0FF204610BD2DE9FE4F80462D
:1003300081EA0300C00F0C46009021F0004123F039
:100340000045B8EB0200A94105D24046214690463F
:100350001C460B46024623F00040104347D0270DB1
:10036000C7F30A00C3F30A510290401A01904028D3
:100370006BDAC3F3130040F4801B0098924620B15F
:100380000023D2EB030A63EB0B0B01985946C0F133
:100390004002504600F035F906460D465046594693
:1003A000019A00F04DF910EB08006141002487EA42
:1003B000115284EAE7731A4340D0009A62B3019A5B
:1003C000012A4FEA075215DC001B61EB02014FF0D6
:1003D000004202EA0752CDE90042001C41F58011BB
:1003E00032462B4600F084F903B0BDE8F08F40465A
:1003F0002146F9E7001B61EB0201001C41F5801367
:1004000000185B412018A2F5001747EB030140EAF2
:10041000D570B6196D4111E06D084FEA360645EA10
:10042000C0754FEA0752001B61EB0201001C41F549
:10043000801149084FEA30000019514132462B46DD
:1004400003B0BDE8F04F00F044B90098012240002D
:100450000023D0EB020263EBE073009821464FEAE1
:10046000E074B8EB000061EB0401E9E783F00043BE
:100470005BE781F0004158E72DE9FE4F81EA030474
:1004800004F0004421F0004100944FF0000B23F0F1
:10049000004350EA01045ED052EA03045BD0C3F388
:1004A0000A54C1F30A552C44A4F2F3340194A0FB7E
:1004B0000254C1F3130141F48011C3F3130343F455
:1004C000801301FB024400FB034E840A970A44EAAE
:1004D000815447EA8357A4FB076802958D0A05FB00
:1004E00007854FEA932C04FB0C542705029D4FEA25
:1004F000065847EA1637B5EB08056EEB070C870E72
:10050000920E47EA811742EA8312A7FB0201B6EB7B
:100510000B0164EB00042B0D43EA0C335E1844EB33
:100520001C50DA465146E7FB0201C5F313044FEABB
:100530000B3343EA14534FEA0432019C43EA0603A7
:10054000A4F10C040294009CCDE900B400F0D0F8B2
:1005500003B0BDE8F08F00200146F9E70EB5C10FEA
:1005600080EAE0700844CA07002140F233438DE876
:100570000E000A460B4600F0BBF803B000BD0EB5F6
:1005800040F2334102910021CDE900110A460B46A9
:1005900000F0AEF803B000BDC1F30A5210B5C1F3CC
:1005A000130140F2FF3341F480119A4201DA002036
:1005B00010BD40F233439A42A2F2334203DC52426E
:1005C00000F02EF810BD904010BD01F0004330B493
:1005D00021F0004150EA010206D00A0DA2F5607236
:1005E000C1F31301002A02DC30BC00207047440F25
:1005F00044EAC104C100E01830BC00EBC25000F076
:1006000031B8202A04DB203A00FA02F100207047BA
:100610009140C2F1200320FA03F319439040704740
:10062000202A04DB203A21FA02F00021704721FA47
:1006300002F3D040C2F120029140084319467047AE
:10064000202A06DBCB17203A41FA02F043EAE07396
:1006500006E041FA02F3D040C2F120029140084383
:10066000194670470029A8BF7047401C490008BFC1
:1006700020F00100704710B4B0FA80FC00FA0CF0D2
:1006800050EA010404BF10BC704749B1CCF120040A
:1006900021FA04F411FA0CF118BF01212143084397
:1006A000A3EB0C01CB1D4FEA00614FEA102042BFC3
:1006B000002010BC704700EBC35010440029A4BFB9
:1006C00010BC7047401C490008BF20F0010010BC5E
:1006D000704710B5141E73F1000408DA401C41F194
:1006E000000192185B411A4301D120F0010010BDB6
:1006F0002DE9F04D92469B4611B1B1FA81F202E02C
:10070000B0FA80F220329046FFF77BFF04460F4696
:1007100040EA0A0041EA0B0153465A46084313D007
:10072000114653EA010019D0C8F140025046FFF7C4
:1007300077FF05460E46504659464246FFF761FF91
:10074000084305D0012004E020463946BDE8F08D7D
:100750000020054346EAE0762C4337430A986305B8
:10076000E40AA0EB08000022FD0A44EA47540A30DC
:1007700002D500200146E9E7010510196941DDE9CC
:10078000084500196941BDE8F04DA2E7064C074D48
:1007900006E0E06840F0010394E807009847103451
:1007A000AC42F6D3FFF7F4FC98490008B8490008BA
:1007B00070B58C1810F8015B15F0070301D110F823
:1007C000013B2A1106D110F8012B03E010F8016B50
:1007D00001F8016B5B1EF9D12B0705D40023521ED3
:1007E0000DD401F8013BFAE710F8013BCB1A921C3B
:1007F00003E013F8015B01F8015B521EF9D5A14239
:10080000D8D3002070BD10B50146806B026C12F089
:10081000500F05D0026CD20626D500F0FDF910BDB0
:10082000016C41F40071016401688A6812F0405F54
:1008300017D1027EAAB9CA6A12F4700F02D08A6870
:1008400052050ED44A6822F020024A60016C21F45D
:1008500080710164016CC90403D4016C41F0010191
:10086000016400F0D7F910BD806BC26CBDE8104088
:100870000846104710B5806B40210164416C41F07F
:100880000401416400F0C8F910BD10B5806B00F0A0
:10089000C2F910BD464910B54A6822F440324A6098
:1008A0004A6843681A434A6001684A6822F48072C1
:1008B0004A6001684A68036942EA03224A600168A3
:1008C0004A6822F040724A6001684A6883681A43A5
:1008D0004A6001688A6822F400628A6001688A6856
:1008E000C3681A438A60816A6FF07062D1420168FE
:1008F0008A6822F070628A6001688A680CD0836A14
:100900001A438A6001688A6822F040528A6001684E
:100910008A68C36A1A4301E022F040528A60016883
:100920008A6822F002028A6001688A68037E42EACD
:1009300043028A6090F82010002901684A680FD0AD
:1009400042F400624A6001684A6822F460424A60E8
:1009500001684A68174C436A04EB43331A4301E0C9
:1009600022F400624A600168CA6A22F47002CA6214
:100970000168CA6A838B104C04EB03531A43CA62A2
:1009800001688A6822F400728A6001688A6890F8B7
:10099000303042EA43228A6001688A6822F4806229
:1009A0008A6001688A68406942EA8020886010BDD8
:1009B0000023014000E0FFFF0000F0FFFEE7000021
:1009C000014800F093BA000058070020014800F0E9
:1009D0008DBA000078050020014800F087BA0000B9
:1009E000B8070020014800F081BA000098060020F6
:1009F000014800F07BBA0000F8060020014800F032
:100A000075BA0000D8050020014800F06FBA000058
:100A100018050020014800F069BA000038060020DF
:100A200001681823CAB2103AB2FBF3F2054B6FF318
:100A30000901032A9B5CC36500D9091D816508462D
:100A4000704700003C49000810B5014600208B6942
:100A50008A6A4FF0C07453B1B3F5005F15D072B11C
:100A6000012A0CD0022A0AD0032A09D104E01AB1C3
:100A7000012A06D0022A03D1C96AC90100D5012082
:100A800010BDC96AA142FAD010BD002AF7D0012AD0
:100A9000F2D0022AF3D0032AF3D010BD30B5046897
:100AA000256825F480252560046863608368402BF1
:100AB000036803D099600068C26030BD9A60006826
:100AC000C16030BD7047704778B50024009490F83D
:100AD0003C20012A19D0012280F83C200A68072313
:100AE0000568092A13D9EE680A3A02EB42029340DC
:100AF0009E43EE600B788A680A3B03EB43039A40FF
:100B00000368DD682A43DA6010E0022078BD2E69B0
:100B100002EB420293409E432E610B788A6803EBFE
:100B200043039A4003681D692A431A614A681F23D8
:100B3000072A13D205686E6B521E02EB82029340A5
:100B40009E436E630B790A885B1E92B203EB8303AC
:100B50009A4003685D6B2A435A6327E005680D2AB3
:100B600012D22E6BD21F02EB820293409E432E6361
:100B70000B790A88DB1F92B203EB83039A40036868
:100B80001D6B2A431A6311E0EE6A0D3A02EB8202F2
:100B900093409E43EE620B790A880D3B92B203EBC1
:100BA00083039A400368DD6A2A43DA62164B0568BC
:100BB000144A9D4206D10D68122D03D1556845F4A3
:100BC0008005556005689D4218D10B68102B01D037
:100BD000112B13D1536843F40003536009681029A3
:100BE0000CD10A490A4A0968B1FBF2F101EB810113
:100BF000490000E0491E00910029FBD180F83C40EB
:100C0000002078BD0023014000200140A401002005
:100C100040420F0070477047704770B504004FF0B6
:100C2000000503D0206C002610B107E0012070BD44
:100C3000204600F01DF8666484F83C60206CC00615
:100C400010D4206C20F4885040F00200206420462C
:100C5000FFF720FE6664206C20F0020040F00100E7
:100C6000206400E0012584F83C60284670BD000047
:100C700070B586B0064614216846FFF74BFB1D4948
:100C80003068884234D11C480025016841F48071E5
:100C90000160006800F480700590174814380168FE
:100CA00041F0010101600068694600F00100059013
:100CB0000F2000900320CDE90105104800F088FACC
:100CC000104C0F48C4E900050015A560C4E90350A5
:100CD000800060618000A0618011C4E907052046A2
:100CE000656200F0D3F908B1FFF7EDFEB463A663C7
:100CF00006B070BD002001404438024000000240B0
:100D00001064024018050020F8B50E460021044684
:100D1000009190F83C00012807D0012084F83C00A5
:100D200020688368DB0702D011E00220F8BD8368E9
:100D300043F0010383603748374B0068B0FBF3F0A2
:100D400000EB400000E0401E00900028FBD120682E
:100D50008368DB075CD0236C40F20165AB4343F44E
:100D6000807323644068400505D5206C20F4005052
:100D700040F480502064206CC00404D5606C20F0E6
:100D80000600606400E0616484F83C10A16B2448B4
:100D9000224DC863A16B23480864A16B2248C86434
:100DA00021686FF0220008602068416841F080618E
:100DB00041602068816841F4807181602168134638
:100DC00032464C31A06B00F0CBF968681749C00679
:100DD000206806D088421BD1816811F0405F13D093
:100DE00016E08842F8D0124A904203D1D1F8042389
:100DF000D206F1D00F4A90420AD1D1F8041301F083
:100E00001F011029E8D303E0816841F0804181602F
:100E10000020F8BDA401002040420F000023014043
:100E2000070800088B08000875080008002001402A
:100E300000210140002201402DE9F0410446876D68
:100E400000F0A2FA064694F835000025022806D0E4
:100E50008020606584F834500120BDE8F08120686E
:100E6000016821F0160101602068416921F08001CC
:100E70004161206C08B9A06C20B12068016821F0A4
:100E8000080101602068016821F0010101600BE0A8
:100E900000F07AFA801B052806D92020606504F846
:100EA000345F03206070D8E720680068C007EFD186
:100EB00094F85C103F208840B86004F8345F01204B
:100EC00060700020C9E790F83510022903D0802116
:100ED000416501207047052180F8351000680168E0
:100EE00021F0010101600020704700002DE9F84366
:100EF00004464FF00009CDF8009063484FF41651B6
:100F0000A56D0068B0FBF1F72E6894F85C1008201E
:100F100000FA01F131420FD021680A6852070BD55F
:100F20000A6822F004020A6094F85C108840A86005
:100F3000606D40F00100606594F85C104FF00108AE
:100F400008FA01F0304208D021684969090604D541
:100F5000A860606D40F00200606594F85C100420A9
:100F60008840304208D021680968890704D5A86004
:100F7000606D40F00400606594F85C1010208840BB
:100F8000304218D021680968090714D5A860206884
:100F90000168490304D50068000308D5A16C07E087
:100FA0000168C90503D4016821F008010160216CC2
:100FB00009B12046884794F85C10202088403042D0
:100FC00031D021680968C9062DD5A86094F835008C
:100FD00005282068016806D0490347D5006800034A
:100FE0001DD4616C1CE021F016010160206841698C
:100FF00021F080014161206C08B9A06C20B120680B
:10100000016821F00801016094F85C103F208840DD
:10101000A86084F8349084F83580216D1FE0E16B7E
:1010200009B120468847606D00282BD0606DC0074D
:1010300014D0052084F835002068016821F00101F2
:1010400001600098401C0090B84203D820680068F6
:10105000C007F6D184F8349084F83580E16C00291B
:1010600010D001B02046BDE8F04308470168C9052B
:10107000D5D4016821F01001016084F8349084F81F
:101080003580CCE7BDE8F883A40100202DE9F041CC
:10109000044600F079F906465CB1002584F8345026
:1010A000022084F835002068016821F00101016008
:1010B0000DE00120BDE8F08100F066F9801B0528F5
:1010C00005D920206065032084F83500F2E7206808
:1010D0000068C007F0D12268116820480140D4E9B7
:1010E00001031843D4E903363343184363691843B3
:1010F000A3691843E3691843236A18430843616AE4
:10110000042903D1D4E90B13194308431060206864
:101110004069666A20F0070130460E430127042823
:101120000CD1A06A0643E06A40B12046FFF78CFC70
:1011300020B14020606584F83570BAE720684661C8
:101140002046FFF76DFC94F85C203F2191408160C0
:10115000656584F835700020ACE700003F8010F032
:101160002DE9F0410446866D90F8340000250128F1
:101170000DD0012084F8340094F835700020012F40
:1011800007D084F8340002252846BDE8F08102200B
:10119000FBE7022784F8357060652046FFF77EFC88
:1011A00094F85C103F208840B0602068016841F0EE
:1011B00016010160206C20B12068016841F008012F
:1011C00001602068016841F001010160DCE7000076
:1011D0002DE9F84F00224FF0010803254FF00F0EC4
:1011E0000B6808FA02F42340A3426ED14E68012E28
:1011F00005D0022E03D0112E01D0122E12D18668F6
:101200004FEA420C05FA0CF7BE43CF6807FA0CF719
:10121000374387604668A6430C79C4F300149440B2
:1012200034434460C668570005FA07FC8C6826EA18
:101230000C06BC403443C4604C68022C01D0122C14
:1012400013D1D40800EB8404A346D4F820905407AB
:101250004FEAD46A0EFA0AF629EA06090E6906FA76
:101260000AF646EA0906CBF8206006680C7926EAF9
:101270000C0604F00304BC40344304604C68E400F2
:1012800065D5364C266846F480462660246822F0F0
:10129000030604F480440094314C3444A446D4F84A
:1012A00008489607370F0EFA07F6B4432D4EB042A2
:1012B00001D1002624E02C4EB04201D101261FE0CE
:1012C0002A4EB04202D102261AE040E0284EB04237
:1012D00001D1032614E0274EB04201D104260FE0CD
:1012E000254EB04201D105260AE0244EB04201D17C
:1012F000062605E0224EB04201D1072600E008266E
:10130000BE402643CCF808681E4E34684F689C43A4
:10131000FF0300D51C4334601A4C241D26684F6817
:101320009E43BF0300D51E432660164E0836346820
:101330004F689C43FF0200D51C433460114E0C36AD
:1013400034684F689C43BF0200D51C433460521C74
:10135000102AFFF445AFBDE8F88F00004438024082
:10136000003001400000024000040240000802403A
:10137000000C02400010024000140240001802401D
:10138000001C0240003C014001488068704700009A
:101390009801002070B5040011D021684CF6CC40B3
:1013A0000860216845F255500860D4E900014160A9
:1013B0002168A0688860FFF7E7FF054609E0012083
:1013C00070BD00BFFFF7E0FF401B302801D90320AC
:1013D00070BD2068C0680028F4D121684AF6AA20B0
:1013E0000860002070BD00684AF6AA210160002054
:1013F000704700000248816802781144816070479C
:10140000980100200B4810B5016841F4007101609B
:10141000016841F480610160016841F480710160FC
:10142000032000F08DF8002000F006F800F03EF8F0
:10143000002010BD003C024010B5014688B00022DB
:10144000362000F05DF8362000F04CF813480024F8
:10145000016841F010010160006805A900F010006A
:101460000690684600F018F900F036F90C49400083
:10147000B0FBF1F10C480B4A491E026040F2E73222
:10148000C0E90324C0E9011400F098FB10B1012069
:1014900008B010BD044800F0C7FBF9E7403802402F
:1014A00040420F00001000406C0A00200C4882B03F
:1014B000016841F480410160006800F480400090C0
:1014C0000748001F016841F0805101600068002258
:1014D00000F0805000900F21901E02B000F010B874
:1014E00044380240002809DB00F01F02012191402E
:1014F0004009800000F1E020C0F8001170470000B2
:10150000F0B40E4B1B680C46C3F30223C3F107056E
:10151000042D00D90425191D072901D2002300E05C
:10152000DB1E012606FA05F1491E214099409E4026
:10153000761E16403143F0BC02F083BB0CED00E098
:10154000064900F0070208684FF6FF03184040EA1A
:101550000220034A10430860704700000CED00E0D1
:101560000000FA052DE9F0470E46050065D0DFF8CA
:101570001481D8F80000F7B200F00F00B04207D293
:1015800088F80070D8F8000000F00F00B04254D185
:1015900028683D4C810712D5400703D5206840F4E8
:1015A000E05020602878000703D5206840F46040B0
:1015B00020602068A96820F0F000084320602878A7
:1015C000C0072DD0304968680839012812D0022898
:1015D00013D0032811D00968890700292DDA216862
:1015E00021F0030101432160FFF7CEFE814641F265
:1015F000883A0EE009688903EFE709688901ECE79A
:10160000FFF7C2FEA0EB0901514502D90320BDE856
:10161000F0872068696800F00C00B0EB810FEFD113
:10162000D8F80010404601F00F01B14207D9077009
:10163000006800F00F00B04201D00120E7E72878F1
:10164000400705D52068E96820F4E0500843206091
:101650002878000706D52068296920F4604040EA10
:10166000C100206000F058F82168084AC1F3031156
:10167000515CC8400649086006480068FFF7DCFE78
:101680000020C4E7003C02400838024044490008FA
:10169000A40100209C0100200F2202600C4A136864
:1016A00003F003034360136803F0F00383601368DF
:1016B00003F4E053C36012684FF4E05303EAD2022C
:1016C00002610448006800F00F00086070470000E5
:1016D00008380240003C0240044805490068096897
:1016E000044AC1F38221515CC8407047A401002024
:1016F0000838024054490008044805490068096850
:10170000044AC1F34231515CC8407047A401002033
:101710000838024054490008154810B5006810F018
:101720000C02144813D04110042A0FD0082A0ED1FD
:101730000F4C241F2268236802F03F025B0207D58A
:101740002068C0F38810A0FB010106E0084610BD28
:101750002168C1F38811A1FB00010023FEF790FD71
:101760002168C1F30141491C4900B0FBF1F010BDF3
:10177000083802400024F4002DE9F84F040076D028
:101780002078DFF838A3CE4DC00749D0DAF8001032
:101790005046C1F38101012908D00068C0F38100DF
:1017A00002280AD1281D0068400206D52868800357
:1017B00036D560680028E2D032E06068B0F5803F3E
:1017C00010D0B0F5A02F286810D020F48030286009
:1017D000286820F4802028606068A0B1FFF7D4FD5D
:1017E00006460CE0286840F48030F4E740F480209E
:1017F0002860F7E7FFF7C8FD801B642873D82868C6
:101800008003F7D50CE0FFF7BFFD064605E000BFFB
:10181000FFF7BAFD801B6428F0D828688003F7D44E
:101820002078DFF8A08280074FF000093ED5DAF873
:101830000010504611F00C0F09D00068C0F3810071
:1018400002280BD19D48001F0068400206D428687A
:10185000800715D5E068012809D111E0E068B8B12A
:101860000120C8F80000FFF78FFD064605E020E1E3
:10187000FFF78AFD801B0228C0D828688007F7D5AB
:101880002868216920F0F80040EAC10028600DE0D6
:10189000C8F80090FFF778FD064604E0FFF774FDF6
:1018A000801B02281FD828688007F7D420780007FB
:1018B00022D5824E844861696C3671B10121016084
:1018C000FFF762FD074604E0FFF75EFDC01B02283C
:1018D00009D830688007F7D50EE0C0F80090FFF710
:1018E00053FD074605E082E0FFF74EFDC01B0228CE
:1018F0007DD830688007F7D42078400768D5DFF8B6
:10190000BCB100270BF1380BDBF80000C0000BD492
:10191000DBF8001041F08051CBF80010DBF800003C
:10192000012700F080500090684E3068C00510D448
:10193000306840F480703060FFF726FD009005E0CD
:10194000FFF722FD0099401A022850D83068C005E0
:10195000F6D55A4EA068683601280FD005283068A1
:1019600010D020F001003060306820F004003060BA
:10197000A068B8B1FFF708FD00900FE0306840F0B4
:101980000100F4E740F004003060F7E7FFF7FCFCEB
:101990000099411A41F28830814266D83068800748
:1019A000F4D50EE0FFF7F0FC009007E0FFF7ECFC49
:1019B0000099411A41F28830814256D83068800738
:1019C000F4D42FB1DBF8001021F08051CBF80010D7
:1019D000A069D0B3DAF800205146C2F38102022A8E
:1019E0004AD00228484607D0C8F8600000E03CE032
:1019F000FFF7CAFC04463BE04746C8F86000FFF723
:101A0000C3FC064605E000BFFFF7BEFC801B0228B2
:101A10002BD828688001F7D4D4E907010843A16ACC
:101A20002B4A490802EB0141626A41EA82110843EC
:101A300094F82C1040EA01612048001F0160012049
:101A40003866FFF7A1FC044605E034E0FFF79CFC94
:101A5000001B022809D828688001F7D52BE000BFB9
:101A6000FFF792FC001B022802D90320BDE8F88F83
:101A700028688001F4D41EE00128F7D00868E269E4
:101A800000F48001914214D1226A00F03F0191429A
:101A90000FD147F6C071626A0140914209D1A26A32
:101AA00000F44031914204D1E16A00F07060884254
:101AB00001D00120DAE70020D8E700000838024012
:101AC0000038024000004742800E4742007000404C
:101AD0000000FFFF7047704710B590F83C20012AC6
:101AE00022D0012280F83C20CA688C6822F440721F
:101AF00022434C6822F4806222430C6822F4006284
:101B000022430C6922F4805222434C6922F4005291
:101B10002243C969002322F480420A4301684A64CF
:101B200080F83C30002010BD022010BD70B590F848
:101B30003C20012A32D0012480F83C40022280F867
:101B40003D2003685A689D6822F070060A68324397
:101B50005A60134B02689A4214D0B2F1804F11D0F0
:101B6000104B9A420ED0104B9A420BD00F4B9A4218
:101B700008D00F4B9A4205D00E4B9A4202D00E4B22
:101B80009A4204D1496825F080031943916080F896
:101B90003D40002180F83C10084670BD022070BD19
:101BA000000001400004004000080040000C00401C
:101BB00000040140004001400018004010B504003E
:101BC00003D094F83D0010B107E0012010BD0020C3
:101BD00084F83C00204600F00DF8022084F83D0017
:101BE000211D206801F01AF9012084F83D00002031
:101BF00010BD000008B500680949884201D10948B4
:101C000004E0B0F1804F09D10648001F016841F09F
:101C100001010160006800F00100009008BD0000B3
:101C200000000140443802400168CA6842F00102E5
:101C3000CA600068816801F00701062903D00168C5
:101C400041F0010101600020704770B5044690F832
:101C50003C00012817D0012584F83C50022084F86C
:101C60003D002068826822F0770222F47F42826081
:101C70000868502830D00DDC20284DD005DC98B302
:101C800010283BD148E0022070BD302844D04028C5
:101C900034D139E0602828D0702806D0B0F5805FB4
:101CA0002CD0B0F5005F29D10AE0CB68D1E9012141
:101CB000206801F024F92068816841F0770109E08B
:101CC000CB68D1E90121206801F019F92068816809
:101CD00041F48041816011E0CA684968206801F0E0
:101CE000E3F95021206807E016E0CA6849682068D7
:101CF00001F0EBF96021206801F00BF984F83D5008
:101D0000002084F83C0070BDCA684968206801F072
:101D1000CBF940212068EFE7226801461046EBE747
:101D2000704770B50446006801694FF00005C9436B
:101D3000890715D4C168C943890711D4E91E016117
:101D400001202077206880698007204602D0FFF7B5
:101D5000E7FF04E000F0D8F8204600F05AF92577B4
:101D600020680169C943490717D4C168C9434907B5
:101D700013D46FF00401016102202077206880698C
:101D800010F4407F204602D0FFF7CAFF04E000F0C5
:101D9000BBF8204600F03DF9257720680169C9436A
:101DA000090716D4C168C943090712D46FF00801A6
:101DB0000161042020772068C0698007204602D096
:101DC000FFF7AEFF04E000F09FF8204600F021F995
:101DD000257720680169C943C90617D4C168C9437A
:101DE000C90613D46FF01001016108202077206824
:101DF000C06910F4407F204602D0FFF791FF04E055
:101E000000F082F8204600F004F925772068016987
:101E1000C943C90708D1C168C943C90704D1891E8C
:101E20000161204600F018F920680169C9430906DC
:101E300009D4C168C943090605D46FF08001016166
:101E40002046FFF747FE20680169C943490609D4C7
:101E5000C168C943490605D46FF0400101612046BD
:101E600000F004F920680169C94389060BD4C168F0
:101E7000C943890607D46FF0200101612046BDE8FF
:101E80007040FFF728BE70BD30B587B004461421FE
:101E90006846FEF73FFA2468174D002117480222D2
:101EA0000123AC4211D1046844F0100404600068BE
:101EB00000F0100005904FF4D4400090CDE90121CE
:101EC000CDE9031369460E4812E0B4F1804F11D1F9
:101ED000046844F001040460006800F0010005900B
:101EE00020200090CDE90121CDE903136946054882
:101EF000FFF76EF907B030BD0000014030380240F6
:101F00000010024000000240704770B5044690F88F
:101F10003C000D4601280DD0012684F83C600220CB
:101F200084F83D0042B1042A18D0082A2AD00C2A8D
:101F30004DD139E0022070BD206800F0F3FF206829
:101F4000816941F0080181612068816921F0040103
:101F50008161206881692A69114311E0206801F0DC
:101F600011F82068816941F400618161206881690C
:101F700021F480618161206881692A6941EA022136
:101F8000816124E0206801F033F82068C16941F0E4
:101F90000801C1612068C16921F00401C1612068A4
:101FA000C1692A69114311E0206801F055F82068E1
:101FB000C16941F40061C1612068C16921F4806197
:101FC000C1612068C1692A6941EA0221C16184F8BE
:101FD0003D60002084F83C0070BD10B5040003D0C3
:101FE00094F83D0010B107E0012010BD002084F8F6
:101FF0003C00204600F00CF8022084F83D00211D32
:10200000206800F00BFF012084F83D00002010BD87
:102010007047704710B504460068012200F062FF67
:102020000B492068884202D00A49884203D1416C9A
:1020300041F4004141642068816801F007010629EC
:1020400003D0016841F001010160002010BD0000D3
:10205000000001400004014000680349884201D1AA
:10206000FFF7C8B97047000000100040704710B576
:1020700004460068416994F83920C1F3C011212A4F
:102080000BD151B1416921F080014161206B08B150
:10209000FEF7D2FE204601F0D5FB2068416994F896
:1020A0003A20C1F38011222A0BD151B1416921F0AC
:1020B00040014161606B08B1FEF7BEFE204601F0B1
:1020C000B3FB002010BD704770B50268044610686D
:1020D000D168536910F00F0F52D003F0010501F4DD
:1020E00090762E435FD0C20705D0CA0503D5E26BB8
:1020F00042F00102E263420705D5DA0703D0E26B42
:1021000042F00202E263820705D5DA0703D0E26BF0
:1021100042F00402E263020707D501F020022A43DD
:1021200003D0E26B42F00802E263E26B002A33D094
:10213000800604D5880602D5204601F08CFB206875
:102140004069E16BC0F38010090700D428B3204632
:1021500001F06AFB2068416949061AD5416921F0FE
:1021600040014161606BA0B11B490165606BFEF7E6
:10217000AAFE002810D0606B016DBDE870400847D2
:10218000830610D58B060ED52046BDE8704001F0C1
:1021900062BB2046FFF797FF70BD2046FFF793FF15
:1021A0000020E06370BD030606D50B0604D520466B
:1021B000BDE8704001F02EBC4006F3D54806F1D5CD
:1021C000D168204621F04001D160202184F83910E7
:1021D00000F0B2FA70BD00005137000870B504007D
:1021E00004D094F83900002510B106E0012070BD3C
:1021F00084F83850204600F023F8242084F8390071
:102200002068C16821F40051C160204601F06EFBD6
:102210002068016921F4904101612068416921F041
:102220002A0141612068C16841F40051C160E56341
:10223000202084F8390084F83A00002070BD0000A6
:102240002DE9F04F87B0054614216846FEF762F885
:10225000DF48DFF87883D5F800C0DD4B1038022165
:10226000012603220827DFF86CE300244FF0006901
:102270004FF4806AC44535D1D3F800C04CF4002C2B
:10228000C3F800C01B6803F400230593036843F000
:1022900004030360006800F00400059090028DE8DC
:1022A0004300CDE9032769467046FEF791FFCB4E08
:1022B000C9483060C6E90194C6E9034A7461B46153
:1022C000F461346230467462FEF7E0FE08B1FEF756
:1022D000FAFB6E63002205213420B563FFF710F985
:1022E000342050E0DFF8F882C44551D1D3F800C063
:1022F0004CF4801CC3F800C01B6803F480130593E2
:10230000036843F004030360036803F004030593C8
:10231000036843F00803036000688B4600F0080080
:1023200005904FF48050CDE9000BCDE90262904654
:10233000694604977046FEF74BFF0420CDE9000B79
:10234000CDE9026869460497A648FEF741FFA24816
:10235000A54E7830E6E802094020A6E81104A2481C
:1023600046F81449B461F46134627462FEF78EFE7B
:1023700008B1FEF7A8FB2E63002205213520B563C6
:10238000FFF7BEF83520FFF7ADF807B0BDE8F08FD6
:10239000DFF858824FF0070BC44536D18C4B1B1D1C
:1023A0001F6847F010071F601B6803F010030593B8
:1023B000036843F001030360006800F0010005902A
:1023C0004FF4C0608DE84300CDE9032B694688488F
:1023D000FEF7FEFE884E87483060C6E90194C6E9E4
:1023E000034A7461B461F461346230467462FEF78A
:1023F0004DFE08B1FEF767FB6E6300220521252024
:10240000B563FFF77DF82520BDE7DFF8F081C4450F
:102410005BD11F68A04647F400371F601B6803F4B8
:1024200000330593036843F008030360006800F07D
:102430000800059060208DE84300CDE9032B694634
:102440006848FEF7C5FE6449DFF8B4B14831584624
:10245000CBF80010C0E90194C0E9034ACBF814405E
:10246000CBF81840CBF81C40CBF820404E465746DE
:10247000CBF82440FEF70AFE08B1FEF724FB5648CD
:10248000604CC5F834B06030CBF83850C4E9000671
:102490004020A060C4E90387C4F81480C4F8188001
:1024A000C4F81C80C4F820802046C4F82480FEF7BD
:1024B000EDFD08B1FEF707FB2C6300220521262065
:1024C000A563FFF71DF826205DE7DFF83C81C445D2
:1024D0005CD11F68A04647F480271F601B6803F487
:1024E00080230593036843F002030360006800F053
:1024F000020005904FF440608DE84300CDE9032BC6
:1025000069464248FEF764FE3349DFF804B11839E2
:102510005846CBF80010C0E90194C0E9034ACBF853
:102520001440CBF81840CBF81C40CBF820404E4666
:102530005746CBF82440FEF7A9FD08B1FEF7C3FAD1
:102540002548344CC5F834B01830CBF83850C4E9BD
:1025500000064020A060C4E90387C4F81480C4F8D2
:102560001880C4F81C80C4F820802046C4F8248059
:10257000FEF78CFD08B1FEF7A6FA2C6300220521B8
:102580002720A563FEF7BCFF2720FCE6224B9C45D5
:102590007FF4FBAE0E4B1B1D1C6844F020041C6036
:1025A0001B6803F020030593036843F004030360F2
:1025B000006800F004000590C0208DE84300CDE9DC
:1025C000032769467046FEF703FEDEE6004C004036
:1025D0004038024000080240406002407805002078
:1025E00000500040000C0240D805002000100140BF
:1025F0000000024088640240380600200044004089
:1026000098060020F8060020004800400004024020
:1026100058070020B807002000140140F8B5044610
:1026200090F83A0020283CD1C1B3BAB394F83800EE
:10263000012836D0012084F83800A162A285002547
:10264000E563222084F83A00636B1748D863636B14
:1026500016481864636B1648D864606B13460565AA
:102660000846666B216802463046091DFEF778FD74
:10267000206801684168009184F83850C16841F4CD
:102680008071C1602068416941F0010141612068A9
:10269000416941F0400141610020F8BDFFE70120A0
:1026A000FBE70220F9E70000AB370008E737000836
:1026B000613700087047704770B5044690F83900DC
:1026C000202830D169B362B394F8380001282AD0A9
:1026D000012084F838002162A284E2840025E563A9
:1026E000212084F83900236B1048D863236B1048ED
:1026F0001864236B0F48D864206B13460565266861
:10270000206B321DFEF72CFD21686FF04000086041
:1027100084F838502068416941F08001416100200F
:1027200070BD012070BD022070BD0000F1370008AF
:102730001F3800086137000870477047FEE7000047
:102740007FB500241B480094019402941849039417
:10275000016001254FF480310561C0E9011405765F
:1027600080F820401449C0E90A140426C661C460F8
:1027700080F830504461FEF750FA8DE870006946E9
:102780000C48FEF7A1F90224CDE900546946094836
:10279000FEF79AF900940324694606480194FEF76F
:1027A00093F9CDE9004669460248FEF78DF97FBDF1
:1027B00000200140180200200100000F294808B540
:1027C000016841F480010160016801F48001009119
:1027D000016841F4001101600068002200F400105B
:1027E000009005210C20FEF78BFE0C20FEF77AFEF0
:1027F000002205210D20FEF783FE0D20FEF772FE5C
:10280000002205210E20FEF77BFE0E20FEF76AFE59
:10281000002205211020FEF773FE1020FEF762FE55
:10282000002205211120FEF76BFE1120FEF75AFE53
:10283000002205212F20FEF763FE2F20FEF752FE17
:10284000002205213820FEF75BFE3820FEF74AFE05
:10285000002205214420FEF753FEBDE80840442035
:10286000FEF740BE30380240194808B5016841F013
:1028700004010160016801F004010091016841F068
:1028800080010160016801F080010091016841F060
:1028900001010160016801F001010091016841F04E
:1028A00010010160016801F010010091016841F020
:1028B00002010160016801F002010091016841F02C
:1028C00008010160006800F00800009008BD0000E9
:1028D0003038024010B596B000240F941094119433
:1028E000129413941C2168461494FDF713FD2021C3
:1028F00007A8FDF70FFD2A4828490160A721C0E974
:1029000001144CF25031C0E9031444618461FFF7B3
:1029100055F94FF480500F900FA92148FFF795F912
:102920001F48FFF75AFB139413A91D481494FFF78F
:10293000FDF86020009040F24C40CDE90104039482
:10294000049405940022694615480694FFF7DDFAC1
:1029500040F2DC500190042269461148FFF7D5FA95
:10296000082269460E480194FFF7CFFA0C22694607
:102970000B48FFF7CAFA0794089409944FF40050E3
:102980000A94CDE90B4007A905480E94FFF7A4F877
:102990000348FFF779FA16B010BD000000000140AF
:1029A0006C02002010B58EB000240794089409949E
:1029B0000A940B941C2168460C94FDF7ABFC164856
:1029C0004FF0804101602921C0E9011441F28831B2
:1029D000C0E903148461FFF7F1F84FF480500790C9
:1029E00007A90D48FFF731F90B48FFF7F6FA0B94EA
:1029F0000BA909480C94FFF799F86020CDE9000471
:102A000002940022694604480494FFF77EFA0248C3
:102A1000FFF73AFA0EB010BDAC02002010B50C4C16
:102A20000A48042120604FF4E13060600020A0607B
:102A3000E060C4E90401A061E0612046FFF7CEFB3D
:102A40002068C16841F01001C16010BD004C004019
:102A5000EC02002010B5104C0E48042120604FF409
:102A6000165060600020A060E060C4E90401A0612D
:102A7000E0612046FFF7B2FB2068C16841F0100119
:102A8000C160064804F5807142782046BDE81040D8
:102A9000FFF7C4BD001001406C03002004000020BB
:102AA00010B50C4C0A480C2120604FF4E1306060F6
:102AB0000020A060E060C4E90401A061E06120465C
:102AC000FFF78CFB2068C16841F01001C16010BDA8
:102AD00000440040AC03002010B50C4C0A480C2107
:102AE00020604FF4165060600020A060E060C4E9F0
:102AF0000401A061E0612046FFF770FB2068C16817
:102B000041F01001C16010BD00480040EC030020FE
:102B1000FEE770476E4F4FF0060BA7F1180404F163
:102B20007C084FF0010A00254FF0050904F1A406C6
:102B3000387801287AD1B878012877D1206D062815
:102B400074D2DFE800F0031A2E3E5470E06C0328C4
:102B500007D0062809D05E49A26C5531001D8A5C59
:102B600027E007210A22012056E0A564C4E9135A90
:102B70005CE0E06C401CE06458E0E06C022809D0A6
:102B800005280BD05249A26C2831001D8A5CC1B2C5
:102B9000022038E00A22594602203DE00220A564C6
:102BA0000CE0E06C032807D04949A26CC91C103026
:102BB0008A5CC1B2012026E00320A564C4E9135059
:102BC00034E0E06C03280FD04149A26C891D401C01
:102BD0008A5CC1B2082000F081F8E06C401CE0641F
:102BE000A06C401CA06421E00420A564E6E7E06C32
:102BF00002280ED0042812D03549A26C2C31001DB9
:102C00008A5CC1B2032000F069F8A06C401CA0648B
:102C1000AFE759460A22032000F060F8A9E7A5644F
:102C2000C4E9135902E025653D70BD700F2001F025
:102C3000F3F8D8F800000A2805DB25491922B2313B
:102C4000C8F804A006E000280CDC21493722CB316B
:102C5000C8F804501F48FFF72FFD322001F0DCF8C0
:102C6000C8F8009030680A2804DB1B221A49C6F80D
:102C700004A005E000280BDC17491B2236317560E3
:102C80001448FFF719FD322001F0C6F8C6F800908D
:102C9000B0680A2804DB1B220F49C6F80CA005E027
:102CA00000280CDC0C491B223631F56009481B3129
:102CB000FFF702FD322001F0AFF8C6F80890054892
:102CC000CC38FEF790FB012001F0A6F830E70000B9
:102CD0001C0000202C0300201E010020084B9870CF
:102CE000A3F1D200D97010F81210D97100EB420094
:102CF0000A224078187219460248FFF7DDBC00002E
:102D00008A0100202C03002010B5502080F3118888
:102D1000BFF34F8FBFF36F8F01F004FD18B104496B
:102D20004FF080500860002080F3118810BD000033
:102D300004ED00E030B593B030216846FDF7EAFAC3
:102D400014210CA8FDF7E6FA1A480025016841F0A5
:102D500080510160006800F08050119016480168B1
:102D600041F4804101600068022400F48040119029
:102D7000092000904FF4803001900120CDE9050436
:102D80008005079008AA0420A82182E813000B9070
:102D90006846FEF7F1FC0CA90F2081E831004FF4E2
:102DA000A0500F90E002109005210CA8FEF7DAFB6E
:102DB00013B030BD40380240007000401048016838
:102DC00041F4700101600F48016841F001010160A8
:102DD0000C4A00210832116002680B4B1A40026055
:102DE000031D0A4A1A60026822F480220260054824
:102DF0000C300160024958068039086070470000B5
:102E000088ED00E000380240FFFFF6FE103000249D
:102E10000148FEF786BF00006C0A0020F0B502688A
:102E2000254C264D264E274F274B4FF0804CA04275
:102E300009D0604507D0A84205D0B04203D0B842BF
:102E400001D0984204D122F0700E4A6842EA0E0284
:102E5000A0421BD0604519D0A84217D0B04215D06F
:102E6000B84213D0984211D0184DA8420ED0184D38
:102E7000A8420BD0174DA84208D0174DA84205D044
:102E8000164DA84202D0164DA84203D122F4407537
:102E9000CA682A434D6922F080022A4302608A6888
:102EA000C2620A688262A04201D0984201D10969D7
:102EB000016301214161F0BD0000014000040040B8
:102EC00000080040000C00400004014000400140A8
:102ED000004401400048014000180040001C004030
:102EE0000020004010B501F01F030121046A994041
:102EF0008C430462016A9A401143016210BD10B50F
:102F0000846842EA032224F47F440A432243826015
:102F100010BD826822F070020A4342F0070181600E
:102F200070470000F0B5026A22F001020262036AF3
:102F300042688469124E24F073050C682C4323F018
:102F400002058B682B430D4DA84201D0B04205D13C
:102F500023F00807CB683B4323F00403A84201D0C9
:102F6000B04205D14D6922F4407215438A692A4363
:102F700042608461496841630362F0BD0000014022
:102F800000040140F0B5026A22F010020262026AF7
:102F9000436884690D6824F4E64444EA05248D6896
:102FA00022F0200242EA05120F4D104EA84201D035
:102FB000B04206D1CF6822F0800242EA071222F026
:102FC0004002A84201D0B04207D14D6923F44063CA
:102FD00043EA85038D6943EA850343608461496858
:102FE00081630262F0BD0000000001400004014066
:102FF000F0B5026A22F480720262026A4368C46910
:1030000022F4007224F073050C68124E2C438D6874
:1030100042EA05220E4DA84201D0B04206D1CF6847
:1030200022F4006242EA072222F48062A84201D020
:10303000B04207D14D6923F4405343EA05138D692B
:1030400043EA05134360C4614968C1630262F0BD8D
:10305000000001400004014030B5026A22F48052B1
:103060000262046A4268C3690D6823F4E64343EAD6
:1030700005238D6824F4005444EA0534084DA84221
:1030800002D0084DA84204D14D6922F4804242EAA0
:1030900085124260C36149680164046230BD00006A
:1030A000000001400004014010B5036A046A24F0E6
:1030B00001040462846924F0F00444EA021423F059
:1030C0000A020A438461026210BD10B5036A23F04C
:1030D000100303628369046A23F4704343EA0232F3
:1030E00024F0A00343EA01118261016210BD0000D7
:1030F0002A4C207801284CD100202070616A64237A
:103100004A7C887C02EB820200EB4202087C10FBC6
:1031100003F0CB7B03EB4305C5EBC31300EBC3000C
:103120001044A0F55040503880B260828B7DCA7D3B
:1031300003EB830302EB43024B7D642513FB05F392
:103140000D7D05EB4506C6EBC51503EBC5031A441B
:10315000A2F55042503A92B24FF08043A282586397
:103160000F48C263E28A42631E220E48FFF7A4FAA8
:103170000C496278C031A1F58070FFF74FFA0A4818
:10318000FEF731F9074840380068C16841F0100186
:10319000C160012000F040FEABE700000400002009
:1031A00000000140AC03002060020020194CA4F193
:1031B000A405A878012829D10020A870A86A417820
:1031C000312902D0302903D005E02168491C01E0F3
:1031D0002168491E2160C078312802D0302803D0F0
:1031E00005E0A068401C01E0A068401EA0600A49FC
:1031F000EA78A1F58370FFF711FA0848FEF7F3F8B3
:1032000007480068C16841F01001C160012000F06A
:1032100003FECEE7A8000020B204002060020020D8
:10322000AC030020DFF8F0812DED028B08F164097A
:10323000A8F11805287901287DD10020287198F877
:103240000200002878D1EC6AE0783038FDF786F982
:103250009FED721B53EC112BFDF70EF941EC180B8F
:103260006078A178303800EB80006FF02F0202EB1D
:1032700040000844FDF772F953EC182BFDF755F8A0
:10328000FDF7A3F968636079E179303800EBC0029B
:1032900002EB001001EB8001A07900EB8002614895
:1032A00000EB420211448EB2617AE27A303901EBCE
:1032B000C10303EB011102EB8101A27A02EB82024E
:1032C00000EB42021144A981617BE27B303901EBC2
:1032D000C10303EB011102EB8101A27B02EB82022D
:1032E00000EB42021144E981617CE27C303901EB60
:1032F000C10303EB011102EB8102A17C01EB81010F
:1033000000EB4100104484B24748C068FDF737F92C
:103310009FED461B9FED478B53EC112BFDF7ACF84F
:1033200053EC182BFDF7A8F89FED441B53EC112B21
:10333000FDF7A2F801E06BE049E0FDF72DF982B25C
:103340006420B4FBF0F1DFF8D0C00CF15A0CACF102
:1033500057031970B4FBF0F100FB11440A21B4FBD0
:10336000F1F72C825F70B4FBF1F701FB17449C70FE
:10337000B6FBF0F4DB1C1C70B6FBF0F400FB14642D
:10338000B4FBF1F66C815E70B4FBF1F601FB164400
:103390009C704FF47A74B2FBF4F626331E70B2FBC5
:1033A000F4F604FB1622B2FBF0F45C70B2FBF0F40E
:1033B00000FB1420B0FBF1F2ACF806009A70B0FBF1
:1033C000F1F201FB1200D870012188F80210E86ABE
:1033D000407D312802D0302804D008E0D9F8001010
:1033E000491C02E0D9F80010491EC9F8001015491F
:1033F0006A79A1F1D200FFF711F90B485830FDF7B7
:10340000F2FF1048D2380068C16841F01001C16075
:10341000012000F001FD0DE71C0000209A99999908
:103420009999B93FF0FDFFFF0802002066666666C5
:1034300066660A40000000000000303F0000000007
:1034400000407F40BE040020924EDFF844820025F9
:10345000A6F11804A07901287CD1A571206B01790F
:103460002E2903D0C2782E2A58D0B6E081788279EE
:10347000303901EB4103C3EBC11102EBC102C1784A
:10348000642311FB03F3417901EB810103EB41015B
:103490001144A1F5A051D039A163417A2D295AD008
:1034A000827A2E2A06D0C37A2E2B12D0077B2E2F9B
:1034B0001CD092E03039027B01EBC10303EB011118
:1034C000C07A02EB810100EB800208EB4200084465
:1034D00082E03039437B01EB4107C7EBC11103EBBD
:1034E000C101642312FB03F2007B51E042F210772A
:1034F000303911FB07F102EB4207C7EBC21201EBB7
:10350000C20103EBC30202EB031201EB8201427B17
:10351000807B02EB820201EB420159E08278437921
:10352000303A02EBC20707EB021203EB820201EB17
:10353000810308EB43031A44A263027A2D2A0AD0BE
:10354000437A2E2B09D0817A2E2915D0C77A2E2FB7
:1035500027D042E097E0E5633FE0C37A303A807AD3
:1035600002EBC20707EB021200EB800003EB8202C2
:1035700008EB400010442FE0303A017B02EB420799
:10358000C7EBC21201EBC201642213FB02F2C07A44
:1035900000EB800002EB40000844A0F5A050D038BA
:1035A0001AE042F21077303A12FB07F203EB4307BE
:1035B000C7EBC31302EBC30201EBC10303EB011121
:1035C00002EB8101027B407B02EB820201EB4201B4
:1035D0000844A0F550405038E0633078E8BBE26B17
:1035E00042F21071B2FBF1F32A484FF47A7C553065
:1035F0000370B2FBF1F301FB1321B1FBFCF242704B
:10360000B1FBFCF20CFB12116422B1FBF2F38370EC
:10361000B1FBF2F302FB13130A21B3FBF1F7E363EF
:10362000C770B3FBF1F701FB17330371A36B2D38A0
:10363000B3FBFCF70770B3FBFCF70CFB1733B3FBD2
:10364000F2F74770B3FBF2F702FB1732B2FBF1F36C
:10365000A2638370B2FBF1F300E004E001FB1321ED
:10366000C170012030700C49E279A1F50170FEF7BC
:10367000D5FF0A48FDF7B7FE08488C300068C168DE
:1036800041F01001C160012000F0C6FBE2E600003D
:10369000F0FDFFFF1C000020F0040020600200206D
:1036A000F8B5214C20680168C1F3001191B301689D
:1036B00041680091016840682046FEF7D8FC1B482D
:1036C000006840681A490A78111A1A48017000788F
:1036D0000E2820D3184B194D0020195C542905D011
:1036E000401C2828F9DB2878A8B118E0014603E03F
:1036F0005E5C0A2E03D0491C2829F9DBF3E7104948
:1037000018440860012028702068C16821F0100169
:10371000C160E8E703E008490348FEF77FFFBDE822
:10372000F8400148FEF7D0BCEC02002078050020EC
:103730000B00002096010020F00400200A00002069
:10374000340000200148FEF7BFBC00002C0300201D
:1037500010B5806B0021C185C184FEF7B4FC10BD9B
:1037600070B5846B2068406994F83910C0F3C010BC
:103770000025212904D118B1E584204600F062F823
:103780002068406994F83A10C0F38010222904D1CF
:1037900018B1E585204600F047F8E06B40F01000D6
:1037A000E0632046FEF78FFC70BD10B50146806BCC
:1037B00009680968C90513D40021C1850168CA6870
:1037C00022F48072CA6001684A6922F001024A61EB
:1037D00001684A6922F040024A61202180F83A10CB
:1037E000FEF768FF10BD10B5806BFEF764FF10BDDB
:1037F00010B50146806B09680968C9050CD4002121
:10380000C18401684A6922F080024A610068C16887
:1038100041F04001C16010BDFEF78EFF10BD10B534
:10382000806BFEF78AFF10BD0168CA6822F49072AF
:10383000CA6001684A6922F001024A61202180F8C9
:103840003A1070470168CA6822F0C002CA6020219D
:1038500080F83910704710B590F83A10222901D03D
:10386000022010BD8168B1F5805F11D00169002987
:1038700001681FD0496801F07F03816A4A1C826297
:103880000B70C18D491E0904090CC18518D02BE0AD
:103890000269816A002A0268526805D0D2B20A80A1
:1038A000816A491C8162ECE7C2F308020A80816ADE
:1038B000891CF7E74A68816A4B1C83620A70E0E75B
:1038C0000168CA6822F02002CA600168CA6822F44E
:1038D0008072CA6001684A6922F001024A612021AF
:1038E00080F83A10FEF7E6FE002010BD2DE9F04109
:1038F000044600680169E26821F440511143016106
:103900002169A068E269084361691143084321689D
:10391000CA6849F20C639A430243CA60206841694D
:10392000A26921F4407111434161E06919276425BE
:103930003226B0F5004F354A354920684FF000086F
:1039400006D0884201D0904236D1FDF7D5FE35E051
:10395000884201D0904202D1FDF7CEFE01E0FDF792
:10396000BBFE61684A18A0FB070148EB0803FCF79F
:1039700087FC0146B0FBF5F00201B1FBF5F06FF0FA
:103980001803584301EB800006EBC000B0FBF5F0D4
:1039900000F0F80002EB4002B1FBF5F0584301EBF8
:1039A000800006EBC000B0FBF5F000F007002168D6
:1039B00010448860BDE8F081FDF78EFE61688B0FD2
:1039C0008A00A0FB0701FCF75BFC0146B0FBF5F0A9
:1039D0006FF01802504301EB800006EB0010B0FBC3
:1039E000F5F000F0F002B1FBF5F002EB0012B1FBD4
:1039F000F5F06FF01803584301EB800006EB001060
:103A0000B0FBF5F000F00F00D1E70000001401401A
:103A10000010014090F83910212901D00220704790
:103A20008168B1F5805F016A0BD04A1C02620268AE
:103A300009785160C18C491E0904090CC1840ED05B
:103A400017E009880268C1F3080151600169002983
:103A5000016A02D0491C0162ECE7891CFBE701689E
:103A6000CA6822F08002CA600068C16841F0400163
:103A7000C16000207047000038B51E4C2068016806
:103A8000C1F3001119B301684168009101684068F1
:103A90002046FEF7ECFA18480068406817490A7893
:103AA000111A1748017001781E290CD315490378A3
:103AB0000B4413F8013C252B05D103780B4413F874
:103AC0001E3C242B08D00F490A48FEF7A7FDBDE88D
:103AD00038400848FEF7F8BA0B4B01221A700078FC
:103AE00008440A491E3808602068C16821F01001A6
:103AF000C160ECE76C0300203806002005000020C0
:103B0000000000206C040020040000202800002099
:103B100038B51E4C20680168C1F3001119B3016863
:103B200041680091016840682046FEF7A0FA1848F5
:103B30000068406817490A78111A1748017001781F
:103B400005290CD3154903780B4413F8013C252BA8
:103B500005D103780B4413F8053C242B08D00F49FA
:103B60000A48FEF75BFDBDE838400848FEF7ACBAEE
:103B70000B4B01221A70007808440A49401F086064
:103B80002068C16821F01001C160ECE7AC0300209F
:103B9000980600200700002094010020B2040020B5
:103BA000060000202C00002038B51E4C206801685B
:103BB000C1F3001119B301684168009101684068C0
:103BC0002046FEF754FA18480068406817490A78FA
:103BD000111A17480170017817290CD31549037879
:103BE0000B4413F8013C252B05D103780B4413F843
:103BF000173C242B08D00F490A48FEF70FFDBDE8FB
:103C000038400848FEF760BA0B4B01221A70007862
:103C100008440A49173808602068C16821F010017B
:103C2000C160ECE7EC0300205807002009000020E9
:103C300095010020BE040020080000203000002074
:103C4000FEE70907090E002804DB00F1E02080F8F8
:103C50000014704700F00F0000F1E02080F8141D00
:103C6000704702E008C8121F08C1002AFAD1704745
:103C70007047002001E001C1121F002AFBD17047EC
:103C8000A4B0FDF7BFFBFFF755F8FEF7EDFDFEF71B
:103C900095FDFEF7DFFEFEF703FF5548534901602F
:103CA0000321416040F2FF718160FDF773FBFEF775
:103CB00011FEFEF7B3FEFEF70FFFFEF741FD4C4885
:103CC0004C49CC304FF4165501600024C0E9015432
:103CD0000821C460C0E904418461C461FEF77EFA32
:103CE000464845490160C0E901540C21C460C0E95F
:103CF00004418461C461FEF771FAFEF753FE3C484B
:103D0000FDF771FB3A4800210C30FEF783F9384883
:103D100000214C30FEF77EF9354808210C30FEF7C3
:103D200079F9374940F2DC5048638A035063CC6329
:103D30002F490422583901F11000FCF7E5FF314CFE
:103D40002E4992316279A1F1D200FEF767FC2B492E
:103D5000E2788631A1F58370FEF760FC2749E279AD
:103D6000C431A1F50170FEF759FC24481E2204F16C
:103D700084018038FEF7A0FC1C2223496846FCF72A
:103D8000B0FA0021684600F056F81F4960651C2211
:103D90001C3107A8FCF7A5FA002107A800F04BF892
:103DA0001949A0651C2238310EA8FCF79AFA0021A7
:103DB0000EA800F040F81449E0651C22543115A803
:103DC000FCF78FFA002115A800F035F80E4920669F
:103DD0001C2270311CA8FCF784FA00211CA800F0FA
:103DE0002AF8606600F022F8FEE70000003000408C
:103DF0006002002000500040001401402C0400200C
:103E00000000014004000020B048000801460020E6
:103E1000842900D0C81C70470A21B0FBF1F010B50E
:103E200000B9012000F01AFB002010BD10B500F011
:103E30003BFB002010BD7FB50D4604464169B0F93B
:103E4000080081B1A16971B1FFF7E0FFD4E9051263
:103E50008DE80700D4E900102B46226900F037FCFA
:103E6000039004B070BDFFF7D1FF03A9CDE90001B5
:103E7000208A2B4682B2D4E9001000F0FBFB012817
:103E800001D00020EDE70398EBE700002DE9F041B9
:103E9000184C0F46054666692068001D00F01AFAA6
:103EA00038B9206890F82C1001208840A16981431E
:103EB000A161681C07D137B12168BDE8F0410E4807
:103EC000091D00F04BBA20683544B54245602168B1
:103ED00005D2A068BDE8F041091D00F027BA60686E
:103EE000091D00F023FA206B854200D22563BDE84E
:103EF000F0810000A8010020880B00202DE9F0418E
:103F0000054600F037FA2E4C2069401C20612068DD
:103F10002C4F10B1E06940B32DE0256020690128E5
:103F200029D1002606EB860007EB800000F0F0F9AF
:103F3000761C072EF6D323488C3000F0E9F921488F
:103F4000A03000F0E5F91F48B43000F0E1F91D4859
:103F5000C83000F0DDF91B48DC3000F0D9F9194811
:103F60008C3060601430A06005E02068E96AC06AA7
:103F7000884200D82560E06A401CE062E96A0120BE
:103F8000A26988401043A06101EB810007EB80002B
:103F9000291D00F0E3F900F00DFAE06900280CD0CB
:103FA0002068E96AC06A884207D207494FF080500A
:103FB0000860BFF34F8FBFF36F8FBDE8F081000043
:103FC000A8010020AC0A002004ED00E010B5044672
:103FD00090F8510058B101280CD002280FD0502081
:103FE00080F31188BFF34F8FBFF36F8FFEE7206B15
:103FF00000F0F4F92046BDE8104000F0EFB910BD24
:1040000010484FF47051420706D0C01D0D4920F0F2
:104010000700411AC1F570510B4A00230144C2E95F
:1040200000030839103A21F0070111604B600B6062
:104030000B1AC0E9001393604FF000405360D0604A
:10404000704700009C0B0020F4010020144E154C1A
:10405000A6F1C8074FF08058DFF84C9012E000BF7F
:1040600000F088F9F068C568281D00F033F9206970
:10407000401E2061E068401EE06000F09BF9284689
:10408000FFF7A4FFE0680028EAD138680128F9D9D1
:10409000C9F80080BFF34F8FBFF36F8FF2E70000C6
:1040A000740B0020A801002004ED00E02DE9F0478A
:1040B0009A46DDE9098481466FF00303206B03EB28
:1040C00082021044089D20F00706700707D0502098
:1040D00080F31188BFF34F8FBFF36F8FFEE7231874
:1040E0000A5C83F834200A5C12B1401C1028F6D315
:1040F000002784F84370072D00D30625E562C4E944
:104100001157201D00F00FF904F1180000F00BF911
:104110002461C5F107006462A061E76484F850700F
:1041200052464946304600F0BFF82060B8F1000F13
:1041300001D0C8F80040BDE8F087000030B5114953
:1041400000E011460A688242FBD34B685C18844247
:1041500003D1406818444860084643681C189442DC
:1041600009D1084C103C2468A24209D052681A4474
:1041700042600A6812680260814200D0086030BD67
:104180000460F9E7F401002006484168096829B194
:104190004168C968C9684968016370474FF0FF31D9
:1041A000FAE70000A801002008484068401C4FF0D2
:1041B000500080F3118804D0BFF34F8FBFF36F8F8F
:1041C000FEE7BFF34F8FBFF36F8FFEE7FC010020C8
:1041D0002DE9F0410546002700F09CF9314E30688A
:1041E00008B9FFF70DFFF06805424BD1C5B308359C
:1041F00068070ED005F00700C0F108000544680705
:1042000007D0502080F31188BFF34F8FBFF36F8F1B
:10421000FEE72DB37068854234D82248103001463D
:104220000C6801E020460C466168A94202D2216870
:104230000029F7D131688C4224D0076821680160D9
:1042400060680837411B10290FD96019420708D050
:10425000502080F31188BFF34F8FBFF36F8FFEE7BD
:1042600010E041606560FFF769FF61687068401A9F
:104270007060B268904200D2B060F06801430020E4
:10428000C4E9000100F0B2FA780707D0502080F3AB
:104290001188BFF34F8FBFF36F8FFEE73846BDE83D
:1042A000F0810000E401002010B5031F4FF080747E
:1042B0001C601B1F21F001011960191F044B0B60CA
:1042C00014390A60091F6FF0020244380A6010BDF9
:1042D000A9410008D0E9013201699A60D0E90123BF
:1042E0005A604A68824201D182684A6000220261B3
:1042F0000868401E0860086870470000034B0360B0
:1043000003F15400086080201060704718080020F6
:1043100000F108014FF0FF32C0E90112C1600161F4
:1043200000210160704700210161704730B50B68C2
:104330005A1C02D000F1080202E0026904E02246A1
:10434000546825689D42FAD953684B6099608A6029
:10435000516008610168491C016030BD42684A60D3
:1043600093688B6093685960916008610168491C8B
:1043700001607047502080F31188BFF34F8FBFF367
:104380006F8F0A494868401C486001280CD10848D2
:10439000006810F0FF0F07D0502080F31188BFF3A2
:1043A0004F8FBFF36F8FFEE770470000FC010020C6
:1043B00004ED00E00849486828B1401E486001D17A
:1043C00080F311887047502080F31188BFF34F8F1E
:1043D000BFF36F8FFEE70000FC01002070B50028DE
:1043E00027D0144DA0F108046168E868014207D1A4
:1043F000502080F31188BFF34F8FBFF36F8FFEE71C
:1044000022683AB1502080F31188BFF34F8FBFF379
:104410006F8FFEE78143616000F07CF86068696837
:10442000084468602046FFF789FEBDE8704000F050
:10443000DDB970BDE40100204FF0E02000210161F2
:104440008161054964220968B1FBF2F1491E4161AD
:104450000721016170470000A401002010B502008F
:1044600014D00F48806B38B1502080F31188BFF30F
:104470004F8FBFF36F8FFEE700F04CF8002110461E
:10448000FFF704FD00F0B2F9002807D105494FF00D
:1044900080500860BFF34F8FBFF36F8F10BD0000D7
:1044A000A801002004ED00E010B586B000240394BC
:1044B00005AA04A903A80494FFF720FFDDE903017E
:1044C0000094CDE9011000230EA11048059A00F0D8
:1044D000FEF80F490028486311D0502080F311885E
:1044E000BFF34F8FBFF36F8F4FF0FF300863012092
:1044F000C8614C6106B0BDE8104000F041B806B09C
:1045000010BD000049444C45000000004D4000082B
:10451000A80100200248816B491C8163704700009C
:10452000A80100201448816B11B10121416270473C
:10453000002141628169B1FA81F1C1F11F0101EBF2
:1045400081020E4951F822306BB101EB820101F179
:1045500008034A6852684A609A4201D152684A6028
:10456000D16801607047502080F31188BFF34F8FEE
:10457000BFF36F8FFEE70000A8010020AC0A002007
:104580001CB537480168374A914207D1502080F363
:104590001188BFF34F8FBFF36F8FFEE7006831497B
:1045A000491E884207D1502080F31188BFF34F8FF6
:1045B000BFF36F8FFEE72C4908780190FF20087049
:1045C00008788DF800009DF800009DF8002000F0AC
:1045D000F000904207D0502080F31188BFF34F8F36
:1045E000BFF36F8FFEE79DF80000204B00F05000F6
:1045F00018700720986005E09DF8002052008DF8A3
:104600000020401E9DF800201206F5D49860032873
:1046100007D0502080F31188BFF34F8FBFF36F8F07
:10462000FEE74FF440709860019808700C48203005
:10463000016841F470010160016841F0704101605E
:10464000FFF7FAFE00205860FBF7CCFD0848016830
:1046500041F040410160FBF7B1FD00201CBD0000AE
:1046600000ED00E071C20F4100E400E0FC01002019
:1046700034EF00E02DE9FF5F8346DDE90E879946C0
:1046800016468A469000FFF7A3FD05001CD0542073
:10469000FFF79EFD040014D00020256384F851002C
:1046A000CDE90240CDE900874B4632465146584697
:1046B000FFF7FCFC2046FFF721FC012004B0BDE819
:1046C000F09F2846FFF78AFE4FF0FF30F6E7F0B57F
:1046D00085B0DDE90B640A9DA6B1DCB154270097D3
:1046E0002663022684F85160002604AFCDE9024615
:1046F000CDE90057FFF7DAFC2046FFF7FFFB0498EF
:1047000005B0F0BD502080F31188BFF34F8FBFF389
:104710006F8FFEE7502080F31188BFF34F8FBFF3F8
:104720006F8FFEE72DE9F0412E4C0027A06B40B1C2
:10473000206A401C2062606A00B101273846BDE84B
:10474000F0816669761C666113D16068006838B1D3
:10475000502080F31188BFF34F8FBFF36F8FFEE7B8
:104760006068A1686160A060A06A401CA062FFF759
:104770000BFD206BDFF87080864209D3606800680B
:1047800080B16068C068C568686886420DD22063E1
:104790002068C06A00EB800158F821000128CAD9BE
:1047A0000127C8E74FF0FF30F1E7281DFFF792FD22
:1047B000A86A18B105F11800FFF78CFDE86A01211D
:1047C000A26981401143A16100EB800108EB8100E7
:1047D000291DFFF7C3FDE86A2168C96A8842CDD365
:1047E0000127CBE7A8010020AC0A00202DE9F04703
:1047F0002C4D00242746A86B38B1FFF7BBFDA86BF2
:10480000401EA863A86B40B146E0502080F3118899
:10481000BFF34F8FBFF36F8FFEE72969224E012050
:10482000D1B3A6F1B40980463068E8B1F068C46835
:1048300004F11800FFF74EFD201DFFF74BFDE06A65
:10484000AA6908FA00F11143A96100EB800109EBA4
:104850008100211DFFF782FDE06A2968C96A88424C
:10486000E2D3C5F82480DFE70CB1FFF78DFC2C6A9A
:1048700044B14646FFF756FF00B16E62641EF9D19F
:1048800000202862686A38B10849012738070860A3
:10489000BFF34F8FBFF36F8FFFF78CFD3846BDE836
:1048A000F0870000A8010020600B002004ED00E06C
:1048B0005C490008F1300008000000000000000022
:1048C00080000000000000000000000068490008AF
:1048D000AD31000800000000000000008000000072
:1048E00000000000000000007449000825320008A4
:1048F0000000000000000000800000000000000038
:104900000000000080490008493400080000000051
:104910000000000080000000000000000000000017
:104920008C490008152B0008000000000000000062
:1049300080000000000000000000000000061016CB
:104940000006101600000000000000000102030431
:1049500006070809000000000102030455415254F3
:10496000315461736B0000005541525432546173ED
:104970006B00000055415254335461736B000000CA
:1049800055415254345461736B0000004469737094
:104990006C61795461736B00B84900080000002015
:1049A00008020000B0070008484A0008080200207A
:1049B00098490000723C0008511246120C12320253
:1049C000602802135572068F24393A313030043989
:1049D000055A35054A25285A01302908101BA3B06D
:1049E000A3B1A3B2A3B3A3B4A3B5A3B6A3B7A3B80B
:1049F000A3B9A3AE550704012B550A6C1431050168
:104A0000B80ABFD8D6C6B2D6C2A9CB191314010AA8
:104A100025A1011B55074659371306014809B5E77B
:104A2000D4B4B2D6A3B1521911F91B4AB21BB9368C
:104A3000C951B936C91B2916720829E482100359D5
:084A400024F41AAA0141000050
:040000050800018965
:00000001FF
