:100000000C948E000C94B6000C94B6000C94B600C0
:100010000C94B6000C94B6000C94B6000C94B60088
:100020000C94B6000C94B6000C94B6000C94B60078
:100030000C94B6000C94B6000C94B6000C94B60068
:100040000C9465060C94B6000C94EE060C94C8064D
:100050000C94B6000C94B6000C94B6000C94B60048
:100060000C94E10B0C94B600084AD73B3BCE016ED2
:1000700084BCBFFDC12F3D6C74319ABD56833DDAFF
:100080003D00C77F11BED9E4BB4C3E916BAAAABE0E
:10009000000000803F036EDB363D9A9999993DAB95
:1000A000AAAA2A3E000000803F072C7AA5BA6CC598
:1000B00090DA3B9365FC8BBC53F810FD3C56928361
:1000C0004DBD879D3AB63DCBC9BF5BBE73DA0FC944
:1000D0003F0000000000250028002B000404040459
:1000E00004040404020202020202030303030303E2
:1000F00001020408102040800102040810200102BF
:10010000040810200000000800020100000304079A
:1001100000000000000000007F1C8C1C11241FBE8A
:10012000CFEFD8E0DEBFCDBF11E0A0E0B1E0EEE55B
:10013000F2E402C005900D92A035B107D9F723E093
:10014000A0E5B1E001C01D92AE3AB207E1F710E0C0
:10015000CEE8D0E004C02197FE010E94E51FCC3814
:10016000D107C9F70E94C51C0C942D210C940000E6
:100170002091B50281E0213208F044C080919102C3
:100180008111FCCF8091B40292E09093910291E0B2
:10019000909390029FEF90938F0210928E02209383
:1001A0008D02A4E9B2E0EDE6F2E090E0291331C05F
:1001B00010926C0290916C02880F892B80936C02D4
:1001C00080916B02813049F510926B0280916C0234
:1001D0008093BB008091BC0083FDF8CF85EC8093B9
:1001E000BC00809191028230E1F380918F028F3FB9
:1001F000B1F080918F028032A1F080918F02803324
:1002000091F084E0109293021092B5021092920243
:1002100008953D9131939F5FC9CF85EEE0CF80E097
:10022000F1CF82E0EFCF83E0EDCF91E090939202A7
:100230008093B402109293021092B50208959091A7
:100240006A02809169022FEF3FEF981748F4E92F77
:10025000F0E0E75BFD4F208130E09F5F90936A0202
:10026000C901089590916A02809169022FEF3FEFD2
:10027000981748F4E92FF0E0E75BFD4F208130E06C
:100280009F5F90936A02C901089590919102911124
:10029000FCCF91E090939102909390022FEF2093E6
:1002A0008F0210928E02260F20938D0290936C0283
:1002B00090916C02880F892B80936C0280916B0265
:1002C0008130F9F410926B0280916C028093BB0034
:1002D0008091BC0083FDF8CF85EC8093BC008091B9
:1002E00091028130E1F380918E02861710F46091C3
:1002F0008E02ADE6B2E0E9E4F2E080E0861303C0EE
:10030000089585EEEACF9D9191938F5FF7CF90E0AE
:10031000FC01EC5FFE4F2491FC01E051FF4F349152
:10032000FC01E452FF4FE491EE23B1F0222339F0B7
:100330002330E9F090F4213001F1223011F1F0E0A6
:10034000EE0FFF1FEE52FF4FA591B4918FB7F894B7
:10035000EC913E2B3C938FBF08952730A9F02830B5
:10036000C9F0243061F7809180008F7D03C08091B7
:1003700080008F7780938000E2CF84B58F7784BD33
:10038000DECF84B58F7DFBCF8091B0008F778093D7
:10039000B000D5CF8091B0008F7DF9CF3FB7F894F2
:1003A0008091450290914602A0914702B091480287
:1003B00026B5A89B05C02F3F19F00196A11DB11DC0
:1003C0003FBFBA2FA92F982F8827BC01CD01620FFC
:1003D000711D811D911D42E0660F771F881F991FB7
:1003E0004A95D1F70895AF92BF92CF92DF92EF92E4
:1003F000FF920F931F93CF93DF936C017B018B01CF
:10040000040F151FEB015E01AE18BF08C017D1071E
:1004100059F06991D601ED91FC910190F081E02DA8
:10042000C6010995892B79F7C501DF91CF911F91FD
:100430000F91FF90EF90DF90CF90BF90AF90089515
:10044000FC01538D448D252F30E0842F90E0821BDA
:10045000930B541710F0CF96089501970895FC015F
:10046000918D828D981761F0A28DAE0FBF2FB11DB7
:100470005D968C91928D9F5F9F73928F90E008950F
:100480008FEF9FEF0895FC01918D828D981731F0C9
:10049000828DE80FF11D858D90E008958FEF9FEF1D
:1004A0000895FC01918D228D892F90E0805C9F4FF3
:1004B000821B91098F739927089580E591E00E942E
:1004C000510221E0892B09F420E0822F089580E079
:1004D00090E0892B29F00E945D0281110C940000AC
:1004E0000895FC01A48DA80FB92FB11DA35ABF4FC9
:1004F0002C91848D90E001968F739927848FA68923
:10050000B7892C93A089B1898C91837080648C9376
:10051000938D848D981306C00288F389E02D808125
:100520008F7D80830895EF92FF920F931F93CF9357
:10053000DF93EC0181E0888F9B8D8C8D98131AC01E
:10054000E889F989808185FF15C09FB7F894EE8905
:10055000FF896083E889F989808183708064808362
:100560009FBF81E090E0DF91CF911F910F91FF90AD
:10057000EF900895F62E0B8D10E00F5F1F4F0F7355
:100580001127E02E8C8D8E110CC00FB607FCFACF10
:10059000E889F989808185FFF5CFCE010E9471023B
:1005A000F1CFEB8DEC0FFD2FF11DE35AFF4FF082E1
:1005B0009FB7F8940B8FEA89FB8980818062CFCF47
:1005C000CF93DF93EC01888D8823B9F0AA89BB898A
:1005D000E889F9898C9185FD03C0808186FD0DC075
:1005E0000FB607FCF7CF8C9185FFF2CF808185FF96
:1005F000EDCFCE010E947102E9CFDF91CF91089536
:100600008091690290916A02891B990B0895CF929B
:10061000DF92EF92FF92CF93DF93EC01CE80DF80E9
:10062000E884F9842A893B894C895D89C701B60130
:100630000E94F61D87FF04C0CA8ADB8AEC8AFD8A05
:100640002E893F89488D598DC701B6010E943F1FF1
:10065000181624F4CE8ADF8AE88EF98ECA84DB84E9
:10066000EC84FD842A8D3B8D4C8D5D8DC701B601D8
:100670000E94F61D87FF04C0CA8EDB8EEC8EFD8EB5
:100680002E8D3F8D48A159A1C701B6010E943F1F81
:10069000181624F4CE8EDF8EE8A2F9A2CE84DF8471
:1006A000E888F9882AA13BA14CA15DA1C701B60148
:1006B0000E94F61D87FF04C0CAA2DBA2ECA2FDA225
:1006C0002EA13FA148A559A5C701B6010E943F1F11
:1006D000181624F4CEA2DFA2E8A6F9A6DF91CF91E6
:1006E000FF90EF90DF90CF90089585ED8093BC0050
:1006F0008091BC0084FDFCCF10929102089520915E
:100700001B02260F3327331F21323105ECF42091D1
:100710009102FC0190E080E0243069F082E00895CD
:10072000A0911B022191AC0147505E4FA40FB52F41
:10073000B11D2C930196861798F380911B02680FC8
:1007400060931B0280E0089581E008950895089564
:100750000895E0916A0280916902E81730F4F0E0B0
:10076000E75BFD4F808190E008958FEF9FEF089544
:10077000CF92DF92EF92FF920F931F93CF93DF936D
:100780007C01CB018A0120919202222389F0EB01A6
:100790006B01C40ED51ECC15DD0569F06991D7013A
:1007A000ED91FC910190F081E02DC7010995F3CF07
:1007B000642F0E947F03C801DF91CF911F910F9199
:1007C000FF90EF90DF90CF900895CF93DF931F922B
:1007D000CDB7DEB76983209192022223F9F02091F0
:1007E000B502203258F021E030E0FC01338322834F
:1007F00090E080E00F90DF91CF9108958091930277
:10080000E82FF0E0EC56FD4F998190838F5F809345
:1008100093028093B50281E090E0ECCF61E0CE01DD
:1008200001960E947F03F7CFCF93DF93D62FC42F7B
:10083000FC012081222389F08EE10E9415016D2F99
:100840008DEE91E00E94E5036C2F8DEE91E00E9409
:10085000E503DF91CF910C94B8008181882311F0DA
:100860008DE0EBCFDF91CF91089590E080E0089587
:100870004F925F926F927F928F929F92AF92BF92B0
:10088000CF92DF92EF92FF92CF93DF93CDB7DEB797
:1008900060970FB6F894DEBF0FBECDBF6B017C0131
:1008A00080E090E0A0ECBFE38D879E87AF87B88B98
:1008B00020E030E040E05FE3C7010E944C1F6D8301
:1008C0007E838F839887C986DA86EB86FC86898546
:1008D0009A85AB85BC8589839A83AB83BC83498128
:1008E0005A816B817C81759567955795479586E808
:1008F0009AE5A7E3BFE5841B950BA60BB70B89838D
:100900009A83AB83BC8389819A81AB81BC818987BF
:100910009A87AB87BC878D849E84AF84B8886D81AD
:100920007E818F81988529853A854B855C854984B0
:100930005A846B847C84C984DA84EB84FC840E94AE
:100940004C1FA30192010E944C1F9B01AC01C501E9
:10095000B4010E94171DA70196010E944C1F6987D0
:100960007A878B879C8769857A858B859C8560963D
:100970000FB6F894DEBF0FBECDBFDF91CF91FF90D1
:10098000EF90DF90CF90BF90AF909F908F907F902F
:100990006F905F904F900895CF93DF93D62FC42F21
:1009A000FC01868D0E9415016D2F8DEE91E00E9455
:1009B000E5036C2F8DEE91E00E94E503DF91CF916E
:1009C0000C94B800EF92FF920F931F93CF93DF9395
:1009D000EC01E62EF42E89018E8D0E9415016E2DFC
:1009E0008DEE91E00E94E5030E94B8008E8D0E947A
:1009F00015016F2D8E8D0E944501D82F10926A022D
:100A000080936902C0E080916A02D81741F00E9489
:100A10003201F801EC0FF11D8083CF5FF4CFDF913D
:100A2000CF911F910F91FF90EF900C94B8000E940E
:100A3000450110926A02809369020895CF93DF9373
:100A4000C62FFC012081222339F18EE10E9415017D
:100A50006C2F8DEE91E00E94E5030E94B8008EE1BC
:100A60000E94150162E070E08EE190E00E9417059F
:100A70009091690280916A029817F1F30E94320105
:100A8000D82F0E943201C82F0E94B80080E09D2F0D
:100A90008C2BDF91CF91089581818823D1F08DE057
:100AA0000E9415016C2F8DEE91E00E94E5030E94DB
:100AB000B8008DE00E94150162E070E08DE090E0EA
:100AC0000E9417059091690280916A029817F1F3CC
:100AD000D5CF90E080E0DDCFCF93C62FFC01208101
:100AE000222309F18EE10E9415016C2F8DEE91E019
:100AF0000E94E5030E94B8008EE10E94150161E0AA
:100B000070E08EE190E00E9417059091690280915B
:100B10006A029817F1F30E943201C82F0E94B800B0
:100B20008C2FCF91089581818823D1F08DE00E9490
:100B300015016C2F8DEE91E00E94E5030E94B80034
:100B40008DE00E94150161E070E08DE090E00E9470
:100B500017059091690280916A029817F1F3DBCF33
:100B6000C0E0DECFCF93C62FFC0120812223C1F04D
:100B70008EE10E9415016C2F8DEE91E00E94E5033D
:100B80000E94B80061E070E08EE190E00E941705DD
:100B90000E943201C82F0E94B8008C2FCF91089577
:100BA0008181882379F08DE00E9415016C2F8DEEF4
:100BB00091E00E94E5030E94B80061E070E08DE0E2
:100BC00090E0E4CFC0E0E9CFFB0101900020E9F71D
:100BD0003197AF01461B570BDC01ED91FC91028070
:100BE000F381E02D09940F931F93CF93DF93CDB73B
:100BF000DEB7A1970FB6F894DEBF0FBECDBF19A226
:100C0000805D88A3BE01605E7F4F80E591E00E9419
:100C1000E4058C016BE371E080E591E00E94E4055E
:100C2000800F911FA1960FB6F894DEBF0FBECDBF07
:100C3000DF91CF911F910F9108958E3008F08E5063
:100C40008770806480937C0080917A0080648093B8
:100C50007A0080917A0086FDFCCF80917800909197
:100C6000790008958F929F92AF92BF92CF92DF92B8
:100C7000EF92FF926B017C010E94CE014B015C015F
:100C8000C114D104E104F104B9F00E94CE01681945
:100C900079098A099B09683E73408105910580F3B3
:100CA00021E0C21AD108E108F10888EE880E83E03D
:100CB000981EA11CB11CE4CFFF90EF90DF90CF9065
:100CC000BF90AF909F908F9008951F920F920FB694
:100CD0000F9211242F933F938F939F93AF93BF93C2
:100CE0008091410290914202A0914302B09144024E
:100CF0003091400223E0230F2D3758F50196A11DB6
:100D0000B11D209340028093410290934202A09330
:100D10004302B09344028091450290914602A09113
:100D20004702B09148020196A11DB11D8093450272
:100D300090934602A0934702B0934802BF91AF91AF
:100D40009F918F913F912F910F900FBE0F901F9009
:100D5000189526E8230F0296A11DB11DD2CF0F933F
:100D60001F93CF93DF938C01D0E0C0E06115710534
:100D700019F00E94E405EC016BE371E0C8010E94E8
:100D8000E4058C0F9D1FDF91CF911F910F91089566
:100D90001F920F920FB60F9211242F933F934F93F0
:100DA0005F936F937F938F939F93AF93BF93EF93D3
:100DB000FF9380E591E00E947102FF91EF91BF9156
:100DC000AF919F918F917F916F915F914F913F91E3
:100DD0002F910F900FBE0F901F9018951F920F929A
:100DE0000FB60F9211242F938F939F93EF93FF933E
:100DF000E0916001F09161018081E0916601F091E4
:100E0000670182FD1BC09081809169018F5F8F73A4
:100E100020916A01821741F0E0916901F0E0E05B06
:100E2000FE4F958F80936901FF91EF919F918F9174
:100E30002F910F900FBE0F901F9018958081F4CFC7
:100E4000CF92DF92EF92FF921F93CF93DF93EC014B
:100E50006A017B01122FE889F98982E08083C1143D
:100E600081EED806E104F104A1F060E079E08DE3C1
:100E700090E0A70196010E941520215031094109F7
:100E800051095695479537952795211580E13807E3
:100E900098F0E889F989108260E874E88EE190E0C2
:100EA000A70196010E9415202150310941095109DD
:100EB0005695479537952795EC85FD853083EE85CA
:100EC000FF852083188EEC89FD891083EA89FB89D0
:100ED000808180618083EA89FB898081886080834A
:100EE000EA89FB89808180688083EA89FB89808127
:100EF0008F7D8083DF91CF911F91FF90EF90DF90E6
:100F0000CF9008950F931F93CF93DF93EC018B0144
:100F100088818823A1F060E0CE010E946C0525E065
:100F2000000F111F2A95E1F78F79482F402B60E0C1
:100F3000CE01DF91CF911F910F910C941404898100
:100F4000882371F069E0CE010E946C0596E0000FE5
:100F5000111F9A95E1F78F73482F402B69E0E8CF76
:100F6000DF91CF911F910F9108950F931F93CF930E
:100F7000DF93EC018B018881882399F060E0CE013A
:100F80000E946C05000F111F000F111F837E482F58
:100F9000402B60E0CE01DF91CF911F910F910C9417
:100FA00014048981882369F069E0CE010E946C05F0
:100FB000000F111F000F111F837F482F402B69E086
:100FC000E9CFDF91CF911F910F9108951F93CF9398
:100FD000DF93EC01162F8881882371F062E0CE0147
:100FE0000E946C05482F4C7F412B62E0CE01DF91BF
:100FF000CF911F910C9414048981882349F069E0F2
:10100000CE010E946C058C7F482F412B69E0EECF0A
:10101000DF91CF911F9108950F931F93DC018C9165
:10102000882309F447C068307105B8F4FB01E55E18
:10103000F74F0C94E51F230837083C084108460881
:101040004B085008550806E011E825E93DE31296E3
:101050000D931D932D933C931597462F4295440F66
:10106000407E61E0CD011F910F910C9414040FE1BB
:1010700015E82BE63FE3EBCF06EF18E22CE93FE360
:10108000E6CF0CE51FE822EC3FE3E1CF0EEA17E4E0
:1010900021E130E4DCCF0AE017ED23E230E4D7CFE2
:1010A00005E81BEE21E430E4D2CF03E313E32BE8A1
:1010B00030E4CDCF11968C9111978823D9F061152A
:1010C000710541F06130710581F0462F4295407FF6
:1010D0006AE0C8CF06EF18E22CE93FE312960D93C1
:1010E0001D932D933C931597F0CF03E313E32BE867
:1010F00030E4F4CF1F910F9108952F923F924F92B9
:101100005F926F927F928F929F92AF92BF92CF9297
:10111000DF92EF92FF920F931F93CF93DF9300D054
:1011200000D000D0CDB7DEB78C017E836D83DB01AC
:101130008C91882309F4B5C19BE0292E312CC12C58
:10114000D12C76014601570126013701B1E02B1A57
:10115000310809F47AC063E08D819E810E941E05EA
:10116000BC01990F880B990B0E9463209B01AC0175
:10117000ED81FE8162817381848195810E944C1F83
:10118000AD81BE8116966D937D938D939C93199737
:1011900067E0CD010E941E05BC01990F880B990BD9
:1011A0000E9463209B01AC01ED81FE81628173810D
:1011B000848195810E944C1FAD81BE811A966D93EA
:1011C0007D938D939C931D9765E0CD010E941E0534
:1011D000BC01990F880B990B0E946320ED81FE8161
:1011E00022813381448155810E944C1F69837A8317
:1011F0008B839C83AD81BE811E966D937D938D9371
:101200009C93519716962D913D914D915C91199714
:10121000C301B2010E94181D2B013C01ED81FE812A
:101220002285338544855585C501B4010E94181D6A
:101230004B015C0129813A814B815C81C701B60178
:101240000E94181D6B017C0181CF77FA709477F8AA
:101250007094AD81BE8116964D925D926D927C9296
:101260001997B7FAB094B7F8B094FD0182869386C7
:10127000A486B586F7FAF094F7F8F0941E96CD920E
:10128000DD92ED92FC9251979A968C919A978823D1
:1012900001F1428A538A648A758A56964D925D920C
:1012A0006D927C925997828E938EA48EB58E5E96A7
:1012B0008D929D92AD92BC929197C2A2D3A2E4A2CC
:1012C000F5A29696CD92DD92ED92FC9299979A9620
:1012D0001C928D819E810E940703ED81FE816289AF
:1012E0007389848995890E946D1E4B015C01AD81D3
:1012F000BE8116966D917D918D919C9119970E945A
:101300006D1E9B01AC01281939094A095B09A0ED42
:10131000B2E00E940A206B017C01ED81FE816689AA
:101320007789808D918D0E946D1E9B01AC012819DB
:1013300039094A095B09C701B6010E94EB1FCA01BE
:10134000B90168567140810991090E946320AD81FD
:10135000BE8116966D937D938D939C9319975A96A3
:101360006D917D918D919C915D970E946D1E4B01B9
:101370005C01ED81FE8162857385848595850E947F
:101380006D1E9B01AC01281939094A095B09A0EDC2
:10139000B2E00E940A206B017C01AD81BE815E96A5
:1013A0006D917D918D919C9191970E946D1E9B01F5
:1013B000AC01281939094A095B09C701B6010E9425
:1013C000EB1FCA01B90168567140810991090E9459
:1013D0006320ED81FE81628773878487958762A190
:1013E00073A184A195A10E946D1E4B015C01AD818A
:1013F000BE811E966D917D918D919C9151970E9419
:101400006D1E9B01AC01281939094A095B09A0ED41
:10141000B2E00E940A206B017C01ED81FE8166A191
:1014200077A180A591A50E946D1E9B01AC01281992
:1014300039094A095B09C701B6010E94EB1FCA01BD
:10144000B90168567140810991090E946320AD81FC
:10145000BE811E966D937D938D939C9351978CE0E6
:10146000FD013696D80101900D928A95E1F7C801E9
:1014700026960FB6F894DEBF0FBECDBFDF91CF9199
:101480001F910F91FF90EF90DF90CF90BF90AF90A2
:101490009F908F907F906F905F904F903F902F9094
:1014A0000895ED81FE818181882309F485C18BE057
:1014B000282E312CC12CD12C760146015701260152
:1014C0003701F1E02F1A310809F47AC061E08D810B
:1014D0009E810E941E05BC01990F880B990B0E94EA
:1014E00063209B01AC01AD81BE8112966D917D910F
:1014F0008D919C9115970E944C1FED81FE81668312
:1015000077838087918763E0CF010E941E05BC012D
:10151000990F880B990B0E9463209B01AC01AD8150
:10152000BE8112966D917D918D919C9115970E942F
:101530004C1FED81FE81628773878487958765E004
:10154000CF010E941E05BC01990F880B990B0E94C8
:101550006320AD81BE8112962D913D914D915C919C
:1015600015970E944C1F69837A838B839C83ED813E
:10157000FE8166877787808B918B268137814085B6
:101580005185C301B2010E94181D2B013C01AD81A0
:10159000BE811A962D913D914D915C911D97C5018B
:1015A000B4010E94181D4B015C0129813A814B81D5
:1015B0005C81C701B6010E94181D6B017C0181CFBF
:1015C00077FA709477F87094ED81FE8146825782A5
:1015D00060867186B7FAB094B7F8B0948286938625
:1015E000A486B586F7FAF094F7F8F094C686D78605
:1015F000E08AF18A82A58823C9F0428A538A648AE4
:10160000758A468A578A608E718E828E938EA48EDA
:10161000B58E868E978EA0A2B1A2C2A2D3A2E4A25A
:10162000F5A2C6A2D7A2E0A6F1A612A68D819E8140
:101630000E940703AD81BE8152966D917D918D917F
:101640009C9155970E946D1E4B015C01ED81FE81BE
:1016500066817781808591850E946D1E9B01AC011A
:10166000281939094A095B09A0EDB2E00E940A2055
:101670006B017C01AD81BE8156966D917D918D91FE
:101680009C9159970E946D1E9B01AC012819390944
:101690004A095B09C701B6010E94EB1FCA01B901E3
:1016A00068567140810991090E946320ED81FE8195
:1016B0006683778380879187628D738D848D958D06
:1016C0000E946D1E4B015C01AD81BE811A966D9129
:1016D0007D918D919C911D970E946D1E9B01AC0187
:1016E000281939094A095B09A0EDB2E00E940A20D5
:1016F0006B017C01ED81FE81668D778D80A191A1CA
:101700000E946D1E9B01AC01281939094A095B0929
:10171000C701B6010E94EB1FCA01B90168567140AA
:10172000810991090E946320AD81BE811A966D9353
:101730007D938D939C931D9792966D917D918D9144
:101740009C9195970E946D1E4B015C01ED81FE817D
:1017500066857785808991890E946D1E9B01AC0109
:10176000281939094A095B09A0EDB2E00E940A2054
:101770006B017C01AD81BE8196966D917D918D91BD
:101780009C9199970E946D1E9B01AC012819390903
:101790004A095B09C701B6010E94EB1FCA01B901E2
:1017A00068567140810991090E946320ED81FE8194
:1017B00066877787808B918B8CE0ED81FE8151CE9F
:1017C00008951F920F920FB60F9211242F933F93FB
:1017D0004F935F936F937F938F939F93AF93BF9339
:1017E000EF93FF938091B900887F803609F44AC057
:1017F000F0F5883209F4A7C018F5803109F49BC0D0
:10180000B8F4882309F4F9C0883009F494C0FF9132
:10181000EF91BF91AF919F918F917F916F915F9168
:101820004F913F912F910F900FBE0F901F901895E1
:10183000883109F488C0803251F780938F0214C038
:10184000803409F49DC040F48033B9F38833F9F64D
:1018500080938F0285ECB0C0803509F485C088354F
:1018600009F496C0883499F60E947503D0CF883960
:1018700009F48CC038F5883729F050F4883611F017
:10188000803729F683E08093910210923F0257C07F
:10189000883809F47BC0803919F0803809F0B7CF57
:1018A00080913F02803208F071C0E0913F0281E0F8
:1018B0008E0F80933F028091BB00F0E0E15EFD4F10
:1018C00080833DC0803B39F0E0F4803A09F479C070
:1018D000883A09F09CCF84E08093910210921C0218
:1018E00010921B02E0911902F0911A020995809161
:1018F0001B0281110FC081E080931B021092F9013D
:1019000009C0803C09F4A6CF883C09F4A3CF883BEA
:1019100009F07DCFE0911C0281E08E0F80931C02C4
:10192000F0E0E750FE4F80818093BB0090911C0255
:1019300080911B0229C080916C028093BB0085ECD2
:101940008093BC0064CF90918E0280918D02981795
:1019500058F5E0918E0281E08E0F80938E02F0E0C8
:10196000E359FD4F8081E9CFE0918E0281E08E0F37
:1019700080938E028091BB00F0E0E359FD4F80839D
:1019800090918E0280918D029817C8F285E8D8CF89
:10199000E0918E0281E08E0F80938E028091BB00D9
:1019A000F0E0E359FD4F80838091900281115CCF7C
:1019B00081E080936B0284EA8093BC0010929102D4
:1019C00026CF85EC8093BC001092910280913F025B
:1019D000803230F4E0913F02F0E0E15EFD4F108292
:1019E00060913F0270E0E0911D02F0911E028FE1D4
:1019F00092E0099510923F020ACF10928F0234CFE5
:101A000010926A0210926902109293021092B5022B
:101A10001092910281E08093900210926B0282E119
:101A20000E94870183E10E948701E9EBF0E0808159
:101A30008E7F808380818D7F808388E48093B8004F
:101A400085E48093BC0086EA93E090931A02809329
:101A5000190287EA93E090931E0280931D02089575
:101A60000F931F93CF93DF93EC0106E010E001503A
:101A70001109B1F08DEE91E00E94000D8EE10E94FF
:101A800015010E94B80091E0811190E098838823AD
:101A900039F064E170E080E090E00E943206E7CF28
:101AA0006EE371E080E591E00E94E405888190E0BA
:101AB0000E94F30518811123B1F16AE0CE010E9462
:101AC000B205883439F010E0812FDF91CF911F915A
:101AD0000F9108956BE0CE010E94B205843399F70F
:101AE0006CE0CE010E94B205833369F761E070E0DB
:101AF000CE010E940C0870E060E0CE010E94E60773
:101B000064E070E0CE010E94B50770E060E0CE01B5
:101B10000E9482078FE195E8ABE6BFE38A839B834F
:101B2000AC83BD83D1CF06E010E001501109B9F0BC
:101B30008DEE91E00E94000D8DE00E9415010E9443
:101B4000B80091E0811190E099838881811107C0EC
:101B500064E170E080E090E00E943206E6CF67E446
:101B600071E080E591E00E94E405898190E00E94A7
:101B7000F3051981112309F4A6CF41E06BE0CE01F2
:101B80000E94140440E460E2CE010E94140441E08B
:101B900061E2CE010E9414044DE169E0CE010E9491
:101BA00014046BE0CE010E94B205813009F08BCFA6
:101BB00060E2CE010E94B205803409F084CF61E278
:101BC000CE010E94B205813009F07DCF61E070E066
:101BD000CE010E940C0861E070E0CE010E94E60791
:101BE00061E070E0CE010E94B50763E070E0CE01D5
:101BF0000E94820783E393E3ABE8B0E48FCF2F9298
:101C00003F924F925F926F927F928F929F92AF928C
:101C1000BF92CF92DF92EF92FF920F931F93CF93D9
:101C2000DF93CDB7DEB7CA54D1090FB6F894DEBF43
:101C30000FBECDBF8C017EA36DA3DC0154968C91A9
:101C40000E94150162E38DEE91E00E94E5030E947F
:101C5000B800F80184890E94150166E070E0D8019F
:101C600054968D919C910E9417057801BEE0EB0E71
:101C7000F11CFA82E98289819A818E199F0930913B
:101C8000690220916A02321741F00E943201E98113
:101C9000FA818193FA83E983EECF069729F0D80180
:101CA0001C9281E011968C930E94B800F801208864
:101CB0003188E288F388FA8EE98E66857785072E6B
:101CC000000C880B990B0E94632069837A838B83B5
:101CD0009C8398012B5C3F4F46E06DE1C80146961E
:101CE0000E94E204D801D5966D917C91D697762713
:101CF0006727762792968D919C91680F791F072E02
:101D0000000C880B990B0E94632020E030E046E62F
:101D100051E40E94FB1DF80120A531A542A553A561
:101D20000E944C1FD80156962D913D914D915C918A
:101D300059970E944C1F6D877E878F87988BF8017B
:101D400067A970AD76276727762784A195A1680FCC
:101D5000791F072E000C880B990B0E94632020E04E
:101D600030E046E651E40E94FB1DD8019C962D917F
:101D70003D914D915C919F970E944C1FF801228DDF
:101D8000338D448D558D0E944C1F4B015C01D80151
:101D9000D9966D917C91DA97762767277627969664
:101DA0008D919C91680F791F072E000C880B990B61
:101DB0000E94632020E030E046E651E40E94FB1DD3
:101DC000F80120A931A942A953A90E944C1FD801AA
:101DD0005E962D913D914D915C9191970E944C1F83
:101DE0002B013C010E94CE016B017C01F801EB57F5
:101DF000FF4FC082D182E282F3823496FE8FED8F54
:101E000098012F573F4F3E832D83F90180819181A7
:101E1000A281B381A7019601281B390B4A0B5B0BEA
:101E2000CA01B9010E94612020E034E244E759E48C
:101E30000E94FB1D9B01AC0160E070E080E89FE325
:101E40000E94FB1DAD8DBE8D6D937D938D939C93F4
:101E50001397ED81FE81C082D182E282F3822BED65
:101E60003FE049E450E4C301B2010E944C1F20E06E
:101E700030E044E353E40E94FB1D6D837E838F8337
:101E800098872BED3FE049E450E4C501B4010E947E
:101E90004C1F20E030E044E353E40E94FB1D6987BF
:101EA0007A878B879C872BED3FE049E450E46D8572
:101EB0007E858F8598890E944C1F20E030E044E3A6
:101EC00053E40E94FB1D6D877E878F87988BF801F6
:101ED000EB59FF4F2081318142815381298B3A8B0D
:101EE0004B8B5C8B80819181A281B3818D8B9E8B8A
:101EF000AF8BB88F208131814281538129A33AA3CE
:101F00004BA35CA3780139E6E30EF11CD7018D9158
:101F10009D910D90BC91A02D8FA398A7A9A7BAA7BA
:101F200020813181428153812BA73CA74DA75EA719
:101F3000D801A359BF4F2D913D914D915C911397BD
:101F40002FA738AB49AB5AAB408151816281738175
:101F5000680131E7C30ED11CF601408151816281D5
:101F60007381F70140815181628173814081518188
:101F70006281738140815181628173814D915D9154
:101F80006D917C91139720813181428153812BABDC
:101F90003CAB4DAB5EABF601208131814281538178
:101FA0002FAB38AF49AF5AAF4D915D916D917C9198
:101FB00013974D915D916D917C9113972D913D916A
:101FC0004D915C912BAF3CAF4DAF5EAF8081918165
:101FD000A281B38123968CAF9DAFAEAFBFAF2397E5
:101FE000208131814281538127962CAF3DAF4EAF86
:101FF0005FAF279720813181428153812B962CAF8F
:102000003DAF4EAF5FAF2B9720E030E0A901698173
:102010007A818B819C810E94F61D882309F458C225
:10202000B101330C880B990B0E9463204B015C01BA
:1020300020E030E0A9010E94F61D882309F448C27F
:10204000E98CFA8CB701FF0C880B990B0E94632076
:102050006B017C0120E030E0A9010E94F61D88237D
:1020600009F436C229813A814B815C81CA01B901E8
:102070000E944C1F2B013C01A5019401C501B40134
:102080000E944C1F9B01AC01C301B2010E94181DAC
:102090002B013C01A7019601C701B6010E944C1F0C
:1020A0009B01AC01C301B2010E94181D0E943804BB
:1020B0002B013C0129813A814B815C810E944C1F9C
:1020C00069837A838B839C83A5019401C301B20148
:1020D0000E944C1F698F7A8F8B8F9C8FA70196016E
:1020E000C301B2010E944C1F4B015C012FA938AD06
:1020F00049AD5AAD6BA97CA98DA99EA90E944C1F20
:102100006B017C012FA538A949A95AA96BA57CA50B
:102110008DA59EA50E944C1F9B01AC01C701B60175
:102120000E94171D2B013C012FA138A549A55AA5D6
:1021300069A17AA18BA19CA10E944C1F6B017C011B
:1021400023962CAD3DAD4EAD5FAD23976BAD7CAD11
:102150008DAD9EAD0E944C1F9B01AC01C701B60125
:102160000E94181D69A37AA38BA39CA32D893E8985
:102170004F89588D69897A898B899C890E944C1F67
:1021800020E030E040E05FE30E94171D6B017C011E
:102190002B962CAD3DAD4EAD5FAD2B9727966CAD1C
:1021A0007DAD8EAD9FAD27970E944C1F9B01AC016A
:1021B000C701B6010E94181D6B017C01AC019B0197
:1021C000698D7A8D8B8D9C8D0E944C1F698B7A8BCB
:1021D0008B8B9C8B29A13AA14BA15CA1C501B401B9
:1021E0000E944C1F9B01AC0169897A898B899C896B
:1021F0000E94171D20E030E0A9010E94181D698B84
:102200007A8B8B8B9C8BA3019201C501B4010E9438
:102210004C1F4B015C01A701960169817A818B817A
:102220009C810E944C1F9B01AC01C501B4010E941E
:10223000171D20E030E0A9010E94181D6D8B7E8BD8
:102240008F8B988F29A13AA14BA15CA169817A81DA
:102250008B819C810E944C1F6B017C01A301920128
:10226000698D7A8D8B8D9C8D0E944C1F9B01AC01DA
:10227000C701B6010E94171D20E030E0A9010E94AD
:10228000181D6B017C0120E030E0A90169897A8981
:102290008B899C890E94F61D882309F419C120E0CE
:1022A00030E0A9016D897E898F89988D0E94F61D85
:1022B000882309F40DC120E030E0A901C701B6016F
:1022C0000E94F61D882309F403C198012F593F4F3E
:1022D0003A8F298FD9016D917D918D919C9120E04C
:1022E00030E0A9010E943F1FF801EB58FF4FFA832D
:1022F000E98318160CF012C4AD8DBE8D2D913D9161
:102300004D915C9160E070E080E89FE30E94FB1DCE
:102310004B015C01E98DFA8D20813181428153812D
:10232000A981BA814D905D906D907C9069897A8980
:102330008B899C890E944C1FA50194010E944C1F0F
:10234000A30192010E94181DE981FA8160837183C3
:1023500082839383A98DBA8D2D913D914D915C918E
:102360001801B9E72B0E311CF101408051806280C9
:1023700073806D897E898F89988D0E944C1FA5017D
:1023800094010E944C1FA30192010E94181DD101CB
:102390006D937D938D939C931397E98DFA8D208196
:1023A000318142815381C80183589F4F9A8F898F11
:1023B000DC014D905D906D907C90C701B6010E944C
:1023C0004C1FA50194010E944C1FA30192010E9481
:1023D000181DE98DFA8D6083718382839383A981AF
:1023E000BA812D913D914D915C916D857E858F8552
:1023F00098890E94181D6D877E878F87988BF101C1
:10240000208131814281538169857A858B859C85C4
:102410000E94181D69877A878B879C87A98DBA8D42
:102420002D913D914D915C916D817E818F8198853B
:102430000E94181D6D837E838F8398879801235A8D
:102440003F4F3A832983D9012D913D914D915C9164
:1024500069897A898B899C890E944C1F9B01AC01F8
:102460006D857E858F8598890E94181D6D877E8772
:102470008F87988BE981FA81208131814281538154
:102480006D897E898F89988D0E944C1F9B01AC01BC
:1024900069857A858B859C850E94181D69877A8756
:1024A0008B879C87A981BA812D913D914D915C913B
:1024B000C701B6010E944C1F9B01AC016D817E815A
:1024C0008F8198850E94181D6D837E838F839887E6
:1024D000F801E757FF4F208131814281538160E04D
:1024E00070E080E89FE30E94FB1D20E030E040E0C8
:1024F0005FE30E944C1F6B017C012D853E854F855B
:1025000058890E944C1F6D877E878F87988B2985FD
:102510003A854B855C85C701B6010E944C1F6983D3
:102520007A838B839C832D813E814F815885C7019F
:10253000B6010E944C1F698B7A8B8B8B9C8B180188
:10254000B5E62B0E311CD1012D913D914D915C9141
:102550002D8B3E8B4F8B588FF801E759FF4FFE8331
:10256000ED8320813181428153812D8F3E8F4F8FAA
:1025700058A33496FA87E9872081318142815381BB
:10258000298F3A8F4B8F5C8F3496FAA3E9A3408052
:10259000518062807380D101CD90DD90ED90FC90F0
:1025A0006D8D7E8D8F8D98A190582D853E854F85A0
:1025B00058890E944C1F4B015C01298D3A8D4B8D2F
:1025C0005C8D69817A818B819C810E944C1F9B016B
:1025D000AC01C501B4010E94171D4B015C01A301B0
:1025E000920169897A898B899C890E944C1F9B0181
:1025F000AC01C501B4010E94171DA70196010E94FC
:10260000181DF1016083718382839383A9A1BAA10C
:102610004D905D906D907C90ED81FE81C080D18069
:10262000E280F3802D893E894F89588D6D857E85A6
:102630008F8598890E944C1F4B015C01298D3A8D32
:102640004B8D5C8D69897A898B899C890E944C1F8E
:102650009B01AC01C501B4010E94181D4B015C0136
:10266000A301920169817A818B819C810E944C1F18
:102670009B01AC01C501B4010E94171DA701960181
:102680000E94181DAD81BE816D937D938D939C93A7
:102690001397E9A1FAA14080518062807380A985D7
:1026A000BA85CD90DD90ED90FC902D893E894F89C3
:1026B000588D69817A818B819C810E944C1F4B01CE
:1026C0005C012D8D3E8D4F8D58A169897A898B894A
:1026D0009C890E944C1F9B01AC01C501B4010E9462
:1026E000171D4B015C01A30192016D857E858F85CD
:1026F00098890E944C1F9B01AC01C501B4010E9446
:10270000181DA70196010E94181DE985FA856083AE
:10271000718382839383A9A1BAA1CD90DD90ED90BE
:10272000FC902D893E894F89588D69897A898B89DA
:102730009C890E944C1F4B015C012D8D3E8D4F8D5D
:1027400058A169817A818B819C810E944C1F9B01D9
:10275000AC01C501B4010E94181D4B015C01298D1B
:102760003A8D4B8D5C8D6D857E858F8598890E9415
:102770004C1F9B01AC01C501B4010E94171DA701AC
:1027800096010E94181DE9A1FAA1608371838283DA
:102790009383D1016D917D918D919C9113972D9192
:1027A0003D914D915C91ED81FE8180809180A28070
:1027B000B3804080518062807380A985BA85ED9096
:1027C000FD900D911C911397ED86FE860F87188B57
:1027D000ED90FD900D911C91E982FA820B831C8390
:1027E000A9A1BAA1ED90FD900D911C911397E98AD2
:1027F000FA8A0B8B1C8BED90FD900D911C91ED8A4C
:10280000FE8A0F8B188F0E944C1F6B017C01A30165
:102810009201C501B4010E944C1F9B01AC01C7018C
:10282000B6010E94181D6B017C0129813A814B8100
:102830005C816D857E858F8598890E944C1F9B01E8
:10284000AC01C701B6010E94181D6B017C012D89E6
:102850003E894F89588D69897A898B899C890E9424
:102860004C1F9B01AC01C701B6010E94181D0E94BC
:1028700038046B017C01F101208131814281538157
:102880000E944C1FD1016D937D938D939C93139760
:10289000ED81FE812081318142815381C701B601E2
:1028A0000E944C1FAD81BE816D937D938D939C934F
:1028B0001397E985FA852081318142815381C701CF
:1028C000B6010E944C1FA985BA856D937D938D93A7
:1028D0009C931397E9A1FAA1208131814281538110
:1028E000C701B6010E944C1FA9A1BAA16D937D93A7
:1028F0008D939C931397F101408051806280738087
:10290000AD81BE81ED90FD900D911C91ED82FE8216
:102910000F831887A985BA85ED90FD900D911C91C4
:10292000E986FA860B871C87E9A1FAA1C080D180CD
:10293000E280F380A3019201C301B2010E94181D3D
:102940004B015C01A30192010E944C1F6D877E87A1
:102950008F87988B2D813E814F815885CA01B9019F
:102960000E94181D2B013C012D813E814F8158850D
:102970000E944C1F2D853E854F8558890E94181D49
:1029800020E030E040E85FE30E94171D69837A830E
:102990008B839C8329853A854B855C85C301B20175
:1029A0000E944C1F698B7A8B8B8B9C8BA7019601A5
:1029B000C501B4010E944C1F9B01AC0169897A8951
:1029C0008B899C890E94171D29813A814B815C81EA
:1029D0000E94971D20E030E044E353E40E944C1F26
:1029E0002BED3FE049E450E40E94FB1DADA1BEA1E8
:1029F0006D937D938D939C931397A7019601C301CB
:102A0000B2010E944C1F2B013C0129853A854B8560
:102A10005C85C501B4010E944C1F9B01AC01C30140
:102A2000B2010E94181D0E944620905820E030E01C
:102A300044E353E40E944C1F2BED3FE049E450E493
:102A40000E94FB1DEDA1FEA164837583868397839D
:102A5000A7019601C701B6010E94181DA7019601A2
:102A60000E944C1F2D853E854F8558890E94181D58
:102A700020E030E040E85FE30E94171D2B013C019D
:102A800029853A854B855C85CA01B9010E94181DCC
:102A9000A70196010E944C1F6B017C012D813E8194
:102AA0004F815885C501B4010E944C1F9B01AC01A8
:102AB000C701B6010E94171DA30192010E94971D34
:102AC00020E030E044E353E40E944C1F2BED3FE054
:102AD00049E450E40E94FB1DADA1BEA118966D9380
:102AE0007D938D939C931B97C65BDF4F0FB6F89435
:102AF000DEBF0FBECDBFDF91CF911F910F91FF9031
:102B0000EF90DF90CF90BF90AF909F908F907F908D
:102B10006F905F904F903F902F900895E981FA81D8
:102B20001082118212821382F801E758FF4F10823F
:102B300011821282138234961082118212821382C1
:102B40007DCC2F923F924F925F926F927F928F92A5
:102B50009F92AF92BF92CF92DF92EF92FF920F932C
:102B60001F93CF93DF9300D000D0CDB7DEB79C8307
:102B70008B8365E070E080E090E00E94320644982C
:102B8000459883E590E0EB81FC81958B848B0E94D6
:102B900015016DE28DEE91E00E94E50368E08DEE97
:102BA00091E00E94E5030E94B8000B811C810A5E3F
:102BB0001F4F88E6EB81FC8184AB40E065E1C801F2
:102BC0000E94CC042B803C80F5E32F0E311C910138
:102BD00041E066E1C8010E94E204EB81FC8145A965
:102BE000486166E1C8010E94CC04910141E066E1C0
:102BF000C8010E94E204EB81FC8145A9487F66E19F
:102C0000C8010E94CC04910141E06EE3C8010E941A
:102C1000E204EB81FC8145A9487F41606EE3C80175
:102C20000E94CC04910141E067E1C8010E94E204E6
:102C3000EB81FC8145A9446067E1C8010E94CC0496
:102C4000910141E067E1C8010E94E204EB81FC814F
:102C500045A9416067E1C8010E94CC0466E470E0C8
:102C600080E090E00E94320668EE73E080E090E041
:102C70000E94320681E890E09A838983C12CD12C8E
:102C800076014601570126013701E981FA81319722
:102C9000FA83E983EF2B09F44CC065E070E080E033
:102CA00090E00E943206910146E06DE1C8010E9469
:102CB000E204EB81FC8165A976A976276727762750
:102CC000072E000C880B990B0E9463209B01AC011E
:102CD000C301B2010E94181D2B013C01EB81FC8154
:102CE00067A970AD762767277627072E000C880B1B
:102CF000990B0E9463209B01AC01C501B4010E94A5
:102D0000181D4B015C01EB81FC8161AD72AD762732
:102D100067277627072E000C880B990B0E946320EB
:102D20009B01AC01C701B6010E94181D6B017C011B
:102D3000ACCFC301B201905820E030E040E05CE34A
:102D40000E944C1F0E946D1EEB81FC8173A362A345
:102D5000C501B401905820E030E040E05CE30E94FF
:102D60004C1F0E946D1EEB81FC8175A364A3C701FB
:102D7000B601905820E030E040E05CE30E944C1F38
:102D80000E946D1EEB81FC8177A366A30F900F90CC
:102D90000F900F90DF91CF911F910F91FF90EF90C7
:102DA000DF90CF90BF90AF909F908F907F906F906B
:102DB0005F904F903F902F900895CF93DF93FC0149
:102DC00081E08083118283EC9BEAA6E7BBE38283E8
:102DD0009383A483B58388ED9BE6A6E7BBE3868354
:102DE0009783A087B18782EF94EEA4E6BBE3828746
:102DF0009387A487B58780E090E0A0E8BFE3868B47
:102E0000978BA08FB18F828F938FA48FB58F868F72
:102E1000978FA0A3B1A313A212A215A214A217A266
:102E200016A280A791A7A2A7B3A784A795A7A6A734
:102E3000B7A780AB91ABA2ABB3ABEF01CB59DF4FE0
:102E400088839983AA83BB832496188219821A8265
:102E50001B822496188219821A821B822496188259
:102E600019821A821B82A097188219821A821B82E9
:102E70002496188219821A821B822496188219823B
:102E80001A821B82249688839983AA83BB83DF01DD
:102E9000AF59BF4F4DEC5CEC6CE47EE34D935D931A
:102EA0006D937C93139754961D921D921D921C92C4
:102EB000139714961D921D921D921C9213971496AF
:102EC0001D921D921D921C92139714961D921D9295
:102ED0001D921C921397EB57FF4F108211821282A2
:102EE0001382DF91CF910895CF93DF9300D000D06C
:102EF00000D0CDB7DEB79A8389834B835C836D8323
:102F00007E838B819C81AD81BE81E981FA8126E03F
:102F1000AC01BD01CF010E942007000026960FB62C
:102F2000F894DEBF0FBECDBFDF91CF910895CF9350
:102F3000DF9300D0CDB7DEB79A83898389819A81E8
:102F4000FC01108289819A81FC01118289819A8118
:102F5000FC01128A138A148A158A89819A81FC01DC
:102F6000168A178A108E118E89819A81FC01128E21
:102F7000138E148E158E89819A81FC01168E178E00
:102F800010A211A289819A81FC0112A213A214A29B
:102F900015A289819A81FC0116A217A210A611A67A
:102FA00089819A8121E0FC0122A700000F900F90F7
:102FB000DF91CF910895CF93DF9300D0CDB7DEB7E7
:102FC0009A83898389819A81FC0180810F900F9077
:102FD000DF91CF910895CF93DF9300D0CDB7DEB7C7
:102FE0009A83898389819A81FC0181810F900F9056
:102FF000DF91CF910895CF93DF93CDB7DEB764977C
:103000000FB6F894DEBF0FBECDBFCE0109966DE5B9
:1030100073E00E947D0829853A854B855C858D8506
:103020009E85AF85B889BC01CD010E94971DDC014A
:10303000CB0189839A83AB83BC8383E797E7AEE9AF
:10304000BDE38D839E83AF83B8872D813E814F8101
:10305000588569817A818B819C810E94181DDC01D1
:10306000CB0189839A83AB83BC8320E030E0A90144
:1030700069817A818B819C810E94F61D882384F46A
:103080002BED3FE049EC50E469817A818B819C8192
:103090000E94181DDC01CB0189839A83AB83BC831A
:1030A0002BED3FE049EC50E469817A818B819C8172
:1030B0000E943F1F181684F42BED3FE049EC50E4CA
:1030C00069817A818B819C810E94171DDC01CB0173
:1030D00089839A83AB83BC8320E030E044E353E4EC
:1030E00069817A818B819C810E944C1FDC01CB011C
:1030F0002BED3FE049E450E4BC01CD010E94FB1DF3
:10310000DC01CB018093C6029093C702A093C80252
:10311000B093C902000064960FB6F894DEBF0FBEEC
:10312000CDBFDF91CF910895CF93DF93CDB7DEB7B9
:103130002E970FB6F894DEBF0FBECDBF26E0CE01AE
:103140000996FC01322F11923A95E9F78091C2025B
:103150009091C302A091C402B091C5028B839C835D
:10316000AD83BE838091C6029091C702A091C80230
:10317000B091C902BC01CD010E946D1EDC01CB01E2
:1031800098878F831A82198289819A8103970CF01C
:1031900061C089819A81880F991F880F991F8A546D
:1031A0009D4FFC0180819181A281B38120E030E0BC
:1031B000A901BC01CD010E94F61D882324F5898157
:1031C0009A81880F991F880F991F8A549D4FFC017F
:1031D00080819181A281B38120E030E044EB53E40F
:1031E000BC01CD010E94181DDC01CB0129813A816F
:1031F000220F331F220F331F2A543D4FF9018083C2
:103200009183A283B38389819A81880F991F880F44
:10321000991F8A549D4FFC0180819181A281B381C5
:10322000BC01CD010E946D1EDC01CB01AC01898186
:103230009A81880F991F9E012F5F3F4F820F931F26
:103240000896FC015183408389819A8101969A8373
:1032500089839ACF8B859C850A978CF48B859C8576
:103260001816190664F480E38093050180E38093C7
:1032700006018B859C85805D8093070151C08B85FD
:103280009C850A97F4F08B859C8584369105CCF457
:1032900080E3809305018B859C852AE030E0B901AD
:1032A0000E94BD1FCB01805D809306018B859C85AC
:1032B0002AE030E0B9010E94BD1F805D80930701C4
:1032C0002FC08B859C858436910554F18B859C8518
:1032D000883E93402CF58B859C8524E630E0B9012F
:1032E0000E94BD1FCB01805D809305018B859C856D
:1032F0002AE030E0B9010E94BD1FCB012AE030E096
:10330000B9010E94BD1F805D809306018B859C855D
:103310002AE030E0B9010E94BD1F805D8093070163
:1033200089859A850A978CF489859A8518161906D5
:1033300064F480E38093090180E380930A01898526
:103340009A85805D80930B0151C089859A850A9783
:10335000F4F089859A8584369105CCF480E38093D6
:10336000090189859A852AE030E0B9010E94BD1FD4
:10337000CB01805D80930A0189859A852AE030E03F
:10338000B9010E94BD1F805D80930B012FC089850C
:103390009A858436910554F189859A85883E9340B3
:1033A0002CF589859A8524E630E0B9010E94BD1F7D
:1033B000CB01805D8093090189859A852AE030E000
:1033C000B9010E94BD1FCB012AE030E0B9010E9483
:1033D000BD1F805D80930A0189859A852AE030E0CF
:1033E000B9010E94BD1F805D80930B018D859E8574
:1033F0000A978CF48D859E851816190664F480E36F
:1034000080930D0180E380930E018D859E85805D04
:1034100080930F0151C08D859E850A97F4F08D85AC
:103420009E8584369105CCF480E380930D018D85D3
:103430009E852AE030E0B9010E94BD1FCB01805D6E
:1034400080930E018D859E852AE030E0B9010E94AF
:10345000BD1F805D80930F012FC08D859E858436B2
:10346000910554F18D859E85883E93402CF58D8580
:103470009E8524E630E0B9010E94BD1FCB01805D2E
:1034800080930D018D859E852AE030E0B9010E9470
:10349000BD1FCB012AE030E0B9010E94BD1F805D55
:1034A00080930E018D859E852AE030E0B9010E944F
:1034B000BD1F805D80930F0120E030E040E85FE3B6
:1034C0006B817C818D819E810E94F61D882354F53D
:1034D00089859A85181619062CF580E380930101D9
:1034E00080E38093020120E030E040E251E46B8110
:1034F0007C818D819E810E944C1FDC01CB0120E0EC
:1035000030E040E452E4BC01CD010E94181DDC0112
:10351000CB01BC01CD010E946D1EDC01CB0180936B
:10352000030195C020E030E040E85FE36B817C81DF
:103530008D819E810E943F1F8823ACF120E030E006
:1035400040E251E46B817C818D819E810E94F61D59
:1035500088234CF580E3809301016B817C818D8110
:103560009E810E946D1EDC01CB01805D8093020173
:1035700020E030E040E251E46B817C818D819E81CE
:103580000E944C1FDC01CB01BC01CD010E946D1ECD
:10359000DC01CB012AE030E0B9010E94BD1F805D53
:1035A0008093030154C020E030E040E251E46B819D
:1035B0007C818D819E810E943F1F88230CF447C02F
:1035C00020E030E048EC52E46B817C818D819E816B
:1035D0000E94F61D8823DCF56B817C818D819E81A4
:1035E0000E946D1EDC01CB012AE030E0B9010E948F
:1035F000BD1FCB01805D809301016B817C818D813A
:103600009E810E946D1EDC01CB012AE030E0B901F1
:103610000E94BD1F805D8093020120E030E040E207
:1036200051E46B817C818D819E810E944C1FDC0165
:10363000CB01BC01CD010E946D1EDC01CB012AE053
:1036400030E0B9010E94BD1F805D809303018F812E
:1036500098850A9784F48F819885181619065CF46A
:1036600080E38093110180E3809312018F81805D5C
:103670008093130151C08F8198850A97F4F08F8150
:10368000988584369105CCF480E3809311018F8175
:1036900098852AE030E0B9010E94BD1FCB01805D12
:1036A000809312018F8198852AE030E0B9010E9451
:1036B000BD1F805D809313012FC08F819885843654
:1036C000910554F18F819885883E93402CF58F8128
:1036D000988524E630E0B9010E94BD1FCB01805DD2
:1036E000809311018F8198852AE030E0B9010E9412
:1036F000BD1FCB012AE030E0B9010E94BD1F805DF3
:10370000809312018F8198852AE030E0B9010E94F0
:10371000BD1F805D809313018091CC029091CD02FA
:10372000805D8093150100002E960FB6F894DEBFE1
:103730000FBECDBFDF91CF910895CF93DF93CDB76B
:10374000DEB760E071E080E591E00E94AF06000026
:10375000DF91CF910895CF93DF93CDB7DEB740E8E7
:1037600055E260E070E080E591E00E9474178DEE14
:1037700091E00E94000D65E070E080E090E00E9422
:1037800032068EEC92E00E94A11565E070E080E0C8
:1037900090E00E9432068DE593E00E94300D982F54
:1037A00081E08927882339F064EF71E080E090E0C0
:1037B0000E943206F0CF8DE593E00E94DB1788234C
:1037C000C9F061E070E08DE593E00E940C0860E0D4
:1037D00070E08DE593E00E94E60764E070E08DE51F
:1037E00093E00E94B50763E070E08DE593E00E94EE
:1037F00082071EC08DE593E00E94EB178823C1F07D
:1038000060E070E08DE593E00E940C0861E070E0FC
:103810008DE593E00E94E60761E070E08DE593E0BE
:103820000E94B50763E070E08DE593E00E94820797
:103830000000DF91CF910895CF93DF93CDB7DEB72E
:1038400066EB72E08EEC92E00E94FF0D0E94381C45
:103850000E94FB170E9494180E949D1B68EC70E068
:1038600080E090E00E9432060000DF91CF91089541
:10387000CF93DF93CDB7DEB781E10E941D06909311
:10388000CB028093CA028091CA029091CB028A39FE
:1038900091402CF41092CD021092CC0206C081E02F
:1038A00090E09093CD028093CC020000DF91CF9105
:1038B0000895CF93DF9300D000D0CDB7DEB79A83C1
:1038C00089837C836B8389819A81019781F48B81C1
:1038D0009C81019661F48EEC92E00E94DD168DE5EC
:1038E00093E00E94971788E893E00E94E00B0000A5
:1038F0000F900F900F900F90DF91CF910895CF937D
:10390000DF93CDB7DEB76FEF7FEF81E090E00E94ED
:10391000591CDF91CF910895E0E5F1E01382128206
:1039200088EE93E0A0E0B0E084839583A683B7831C
:103930002BE131E03183208325EC30E0358724878B
:1039400024EC30E03787268720EC30E0318B208B69
:1039500021EC30E0338B228B22EC30E0358B248B52
:1039600026EC30E0378B268B118E128E138E148E40
:10397000EDEEF1E01382128284839583A683B783F0
:103980008DE291E0918380830895789484B582607C
:1039900084BD84B5816084BD85B5826085BD85B5F3
:1039A000816085BD80916E00816080936E00109271
:1039B00081008091810082608093810080918100EC
:1039C000816080938100809180008160809380007D
:1039D0008091B10084608093B1008091B0008160DB
:1039E0008093B00080917A00846080937A00809107
:1039F0007A00826080937A0080917A00816080935F
:103A00007A0080917A00806880937A001092C100D9
:103A10000E94AB1BC0E0D0E00E941C1C2097E1F389
:103A20000E945D028823C1F30E940000F5CF505828
:103A3000BB27AA270E942F1D0C94051F0E94F71E6A
:103A400038F00E94FE1E20F039F49F3F19F426F44E
:103A50000C94CD1E0EF4E095E7FB0C94C71EE92FE5
:103A60000E94161F58F3BA17620773078407950759
:103A700020F079F4A6F50C94381F0EF4E0950B2E87
:103A8000BA2FA02D0B01B90190010C01CA01A001B0
:103A90001124FF27591B99F0593F50F4503E68F10B
:103AA0001A16F040A22F232F342F4427585FF3CF4C
:103AB000469537952795A795F0405395C9F77EF41D
:103AC0001F16BA0B620B730B840BBAF09150A1F066
:103AD000FF0FBB1F661F771F881FC2F70EC0BA0FEC
:103AE000621F731F841F48F4879577956795B79574
:103AF000F7959E3F08F0B0CF9395880F08F099276F
:103B0000EE0F9795879508950E94F71E60F080E864
:103B100091E009F49EEF0E94FE1E28F040E851E07B
:103B200071F45EEF0CC00C94CD1E0C94381FE92F7D
:103B3000E0780E94161F40F3092E052AB1F32617DC
:103B400037074807590738F00E2E07F8E02569F0C7
:103B5000E025E0640AC0EF6307F8009407FADB0190
:103B6000B9019D01DC01CA01AD01EF930E94121E53
:103B70000E94051F0E94C71D5F91552339F02BED50
:103B80003FE049E450FD49EC0C94181D0895DF9383
:103B9000DD27B92FBF7740E85FE316161706480701
:103BA0005B0718F4D92F0E94441F9F938F937F9334
:103BB0006F930E94B91FE8E6F0E00E94D01E0E94B9
:103BC000051F2F913F914F915F910E945F1FDD2351
:103BD00051F09058A2EA2AED3FE049EC5FE3D0783B
:103BE0005D270E942F1DDF910C94051F0E94A31ECC
:103BF00008F481E008950E940F1E0C94051F0E9496
:103C0000FE1E58F00E94F71E40F029F45F3F29F095
:103C10000C94C71E51110C94391F0C94CD1E0E9498
:103C2000161F68F39923B1F3552391F3951B550B98
:103C3000BB27AA2762177307840738F09F5F5F4F7F
:103C4000220F331F441FAA1FA9F335D00E2E3AF0BE
:103C5000E0E832D091505040E695001CCAF72BD0D6
:103C6000FE2F29D0660F771F881FBB1F2617370727
:103C70004807AB07B0E809F0BB0B802DBF01FF2759
:103C800093585F4F3AF09E3F510578F00C94C71E51
:103C90000C94391F5F3FE4F3983ED4F386957795F3
:103CA0006795B795F7959F5FC9F7880F911D969512
:103CB000879597F90895E1E0660F771F881FBB1F6E
:103CC000621773078407BA0720F0621B730B840B1B
:103CD000BA0BEE1F88F7E09508950E94741E689451
:103CE000B1110C94391F08950E941E1F88F09F5730
:103CF00098F0B92F9927B751B0F0E1F0660F771F10
:103D0000881F991F1AF0BA95C9F714C0B13091F005
:103D10000E94381FB1E008950C94381F672F782F48
:103D20008827B85F39F0B93FCCF3869577956795CA
:103D3000B395D9F73EF490958095709561957F4F36
:103D40008F4F9F4F0895990F0008550FAA0BE0E879
:103D5000FEEF16161706E807F907C0F0121613064D
:103D6000E407F50798F0621B730B840B950B39F48D
:103D70000A2661F0232B242B252B21F408950A26F3
:103D800009F4A140A6958FEF811D811D089597F933
:103D90009F6780E870E060E008959FEF80EC0895F1
:103DA000DF93CF931F930F93FF92EF92DF927B01EC
:103DB0008C01689406C0DA2EEF010E945F1FFE019D
:103DC000E894A5912591359145915591A6F3EF0180
:103DD0000E942F1DFE019701A801DA9469F7DF9078
:103DE000EF90FF900F911F91CF91DF9108950024E4
:103DF0000A941616170618060906089500240A9450
:103E000012161306140605060895092E0394000CD5
:103E100011F4882352F0BB0F40F4BF2B11F460FF64
:103E200004C06F5F7F4F8F4F9F4F089557FD90588D
:103E3000440F551F59F05F3F71F04795880F97FB6E
:103E4000991F61F09F3F79F0879508951216130628
:103E50001406551FF2CF4695F1DF08C01616170657
:103E60001806991FF1CF869571056105089408958C
:103E7000E894BB2766277727CB0197F908950E941E
:103E8000A31E08F48FEF08959B01AC0160E070E081
:103E900080E89FE30C94FB1D0E945F1F0C94051F9C
:103EA0000E94F71E38F00E94FE1E20F0952311F0AC
:103EB0000C94C71E0C94CD1E11240C94391F0E9423
:103EC000161F70F3959FC1F3950F50E0551F629F29
:103ED000F001729FBB27F00DB11D639FAA27F00D63
:103EE000B11DAA1F649F6627B00DA11D661F829F8A
:103EF0002227B00DA11D621F739FB00DA11D621F6F
:103F0000839FA00D611D221F749F3327A00D611D8B
:103F1000231F849F600D211D822F762F6A2F11246D
:103F20009F5750409AF0F1F088234AF0EE0FFF1FA0
:103F3000BB1F661F771F881F91505040A9F79E3FF7
:103F4000510580F00C94C71E0C94391F5F3FE4F3B9
:103F5000983ED4F3869577956795B795F795E7954D
:103F60009F5FC1F7FE2B880F911D9695879597F956
:103F700008959B01AC010C944C1F97FB072E16F47F
:103F8000009407D077FD09D00E94D11F07FC05D00F
:103F90003EF4909581959F4F0895709561957F4F60
:103FA0000895AA1BBB1B51E107C0AA1FBB1FA61780
:103FB000B70710F0A61BB70B881F991F5A95A9F7D2
:103FC00080959095BC01CD010895EE0FFF1F0590DF
:103FD000F491E02D0994052E97FB1EF400940E94A5
:103FE000022057FD07D00E94152007FC03D04EF495
:103FF0000C94022050954095309521953F4F4F4F9E
:104000005F4F089590958095709561957F4F8F4F84
:104010009F4F08950E943720A59F900DB49F900D4B
:10402000A49F800D911D11240895A1E21A2EAA1BB0
:10403000BB1BFD010DC0AA1FBB1FEE1FFF1FA21758
:10404000B307E407F50720F0A21BB30BE40BF50B55
:10405000661F771F881F991F1A9469F760957095DE
:10406000809590959B01AC01BD01CF010895A29F61
:10407000B001B39FC001A39F700D811D1124911D3C
:10408000B29F700D811D1124911D08959F939F77FC
:10409000EEE389379E0728F4E5E9F0E00E94BE20B0
:1040A0000CC00E949E209058A2EA2AED3FE049EC05
:1040B0005FE30E942F1D0E94051F0F9007FC905880
:1040C0000895E89409C097FB3EF49095809570950B
:1040D00061957F4F8F4F9F4F9923A9F0F92F96E954
:1040E000BB279395F695879577956795B795F111C9
:1040F000F8CFFAF4BB0F11F460FF1BC06F5F7F4F66
:104100008F4F9F4F16C0882311F096E911C0772377
:1041100021F09EE8872F762F05C0662371F096E880
:10412000862F70E060E02AF09A95660F771F881F4F
:10413000DAF7880F9695879597F90895DF93CF93CF
:104140001F930F938B01EC01E9EAF0E00E94D01E6F
:104150000E94051F9801AE018B01EC0160E070E048
:1041600080E89FE30E94171D0E94D8209801AE01AD
:104170000F911F91CF91DF910C945F1F9F938F93AD
:104180007F936F93FF93EF939B01AC010E944C1FB1
:10419000EF91FF910E94D01E2F913F914F915F911F
:1041A0000C944C1F19F416F40C94CD1E0C94182189
:1041B0000E941E1FB8F39923C9F3B6F39F57550BFE
:1041C00087FF0E9426210024A0E640EA9001805843
:1041D0005695979528F4805C660F771F881F20F00E
:1041E00026173707480730F4621B730B840B20290E
:1041F00031294A2BA69517940794202531254A2763
:1042000058F7660F771F881F20F0261737074807D3
:1042100030F4620B730B840B200D311D411DA095F2
:1042200081F7B901842F9158880F96958795089545
:104230009F3F31F0915020F4879577956795B7951A
:10424000880F911D9695879597F908959150504044
:0E425000660F771F881FD2F70895F894FFCFEE
:10425E00243030303A3030303A3030303A3030303E
:10426E003A3030303A3025000000009302F301203E
:10427E0002E00251022F02430200000000E503B8E3
:10428E00033504A80300031F01A9030D0A00697377
:10429E00484D435F3D20006973514D435F3D200003
:00000001FF
