:020000040800F2
:1000000098060020450100083B240008C92100088B
:100010003924000821060008D52A00080000000045
:100020000000000000000000000000003F24000865
:1000300073060008000000003D2400084124000869
:100040005F0100085F0100085F0100085F01000810
:100050005F0100085F0100085F0100085F01000800
:100060005F0100085F0100085F0100082506000825
:100070005F0100085F0100085F0100085F010008E0
:10008000310600083D0600085F0100085F01000816
:100090005F0100085F0100085F0100085F010008C0
:1000A0005F0100085F0100085F0100085F010008B0
:1000B0005F0100085F0100085F0100085F010008A0
:1000C0005F0100085F0100085F0100085F01000890
:1000D0005F0100085F010008452A00085F01000871
:1000E0005F0100085F0100085F0100085F01000870
:1000F0005F0100085F0100085F0100085F01000860
:100100005F0100085F0100085F0100085F0100084F
:100110005F0100085F0100085F0100085F0100083F
:100120005F0100085F0100085F0100085F0100082F
:10013000DFF80CD000F0BAF900480047152B000892
:10014000980600200648804706480047FEE7FEE77D
:10015000FEE7FEE7FEE7FEE7FEE7FEE7FEE7FEE777
:10016000AD24000831010008202A04DB203A21FADE
:1001700002F00021704721FA02F3D040C2F12002C0
:100180009140084319467047D2B201E000F8012BB4
:10019000491EFBD270470022F6E710B513460A4607
:1001A00004461946FFF7F0FF204610BD80EA010221
:1001B00010B502F00043400022D04A001FD0010ECB
:1001C00001EB1261C0F35600C2F3560240F4000086
:1001D00042F40002A0FB022000047F39140400D086
:1001E000401C50EA124001D44000491EC2B20C0625
:1001F00004EBD010401C4008802A02D003E000200D
:1002000010BD20F00100002900DA0020184310BDC5
:100210002DE9FE4F81EA030404F0004421F000417F
:1002200000944FF0000B23F0004350EA01045ED02D
:1002300052EA03045BD0C3F30A54C1F30A552C44B9
:10024000A4F2F3340194A0FB0254C1F3130141F46E
:100250008011C3F3130343F4801301FB024400FB3A
:10026000034E840A970A44EA815447EA8357A4FB61
:10027000076802958D0A05FB07854FEA932C04FB5E
:100280000C542705029D4FEA065847EA1637B5EB8E
:1002900008056EEB070C870E920E47EA811742EABB
:1002A0008312A7FB0201B6EB0B0164EB00042B0DDC
:1002B00043EA0C335E1844EB1C50DA465146E7FB28
:1002C0000201C5F313044FEA0B3343EA14534FEA18
:1002D0000432019C43EA0603A4F10C040294009C3E
:1002E000CDE900B400F094F803B0BDE8F08F002031
:1002F0000146F9E7C10F80EAE0700844CA07962377
:10030000002100F048B80EB540F2334102910021BF
:10031000CDE900110A460B4600F07AF803B000BDA3
:1003200000F0004220F00040C10DC0F3160040F480
:1003300000007F2901DA00207047962903DCC1F113
:100340009601C84001E096398840002AF4D0404226
:100350007047000030B5041E71F1000404DB4FF05B
:100360000044404264EB0101141E73F1000405DBFC
:100370001C464FF00043524263EB0403994208BF0E
:10038000904230BD0029A8BF7047401C490008BFFB
:1003900020F00100704710B4B0FA80FC00FA0CF0B5
:1003A00050EA010404BF10BC704749B1CCF12004ED
:1003B00021FA04F411FA0CF118BF0121214308437A
:1003C000A3EB0C01CB1D4FEA00614FEA102042BFA6
:1003D000002010BC704700EBC35010440029A4BF9C
:1003E00010BC7047401C490008BF20F0010010BC41
:1003F000704710B5141E73F1000408DA401C41F177
:10040000000192185B411A4301D120F0010010BD98
:100410002DE9F04D92469B4611B1B1FA81F202E00E
:10042000B0FA80F22032904600F052F804460F46AF
:1004300040EA0A0041EA0B0153465A46084313D0EA
:10044000114653EA010019D0C8F140025046FFF7A7
:100450008BFE05460E4650465946424600F038F897
:10046000084305D0012004E020463946BDE8F08D60
:100470000020054346EAE0762C4337430A9863059B
:10048000E40AA0EB08000022FD0A44EA47540A30BF
:1004900002D500200146E9E7010510196941DDE9AF
:1004A000084500196941BDE8F04DA2E7064C074D2B
:1004B00006E0E06840F0010394E807009847103434
:1004C000AC42F6D3FFF738FE243000084430000871
:1004D000202A04DB203A00FA02F100207047914004
:1004E000C2F1200320FA03F3194390407047000043
:1004F00070B5044600688168C943C9071CD181688A
:1005000021F00101816000F04DFE05460FE000BFC3
:1005100000F048FE401B022809D9A06A40F01000F4
:10052000A062E06A40F00100E062012070BD206836
:100530008068C043C007EBD0002070BD10B50146F5
:10054000406A826A12F0500F05D0006A026BBDE863
:10055000104008461047816A41F4007181620168C9
:100560008968C1F3424107290CD1017B51B9816AE5
:1005700021F480718162816AC90403D4816A41F0E7
:100580000101816200F05AF910BD10B5406A816A1C
:1005900041F040018162C16A41F00401C16200F092
:1005A0004FF910BD10B5406A00F049F910BD0000C8
:1005B000F8B500260446009600688168C943C9075B
:1005C00028D0816841F00101816013481349006817
:1005D000B0FBF1F000E0401E00900028FBD100F0DD
:1005E000E1FD054611E000BF00F0DCFD401B0228E4
:1005F0000BD9A06A40F01000A062E06A40F0010050
:10060000E06284F824600120F8BD20688068C0435F
:10061000C007E9D10020F8BD3800002040420F009B
:10062000FEE70000014800F027BB0000C8010020E1
:10063000014800F021BB00000C020020014800F03E
:100640001BBB00005002002030B590F84050012440
:10065000AC40C56B6C60046863604368102B036832
:1006600003D099600068C26030BD9A600068C160C4
:1006700030BD704770470000F8B50025044600956E
:1006800090F82400012808D0012084F82400204696
:10069000FFF72EFF060002D04BE00220F8BDA06A53
:1006A00020F4885040F00200A062022000F048FED2
:1006B00022490968B1FBF0F0400000E0401E0090C4
:1006C0000028FBD12046FFF773FF2068816841F0C6
:1006D0000801816000F066FD074604E000F062FD5D
:1006E000C01B0A2811D8206880680007F6D420684B
:1006F000816841F00401816000F054FD07460EE07E
:1007000000F050FDC01B0A2809D9A06A20F00200A1
:1007100040F01000A06284F824500120F8BD206849
:1007200080684007ECD4A06A20F0020040F001008D
:10073000A06284F824503046F8BD00003800002044
:10074000F8B50024009490F824202546012A12D000
:10075000012280F824204A681F23072A0DD2066848
:10076000776B521E02EB820293409F430B689340CB
:100770001F43776319E00220F8BD06680D2A0AD2EC
:10078000376BD21F02EB820293409F430B6893406A
:100790001F43376309E0F76A0D3A02EB8202934088
:1007A0009F430B6893401F43F7620A68072306685C
:1007B0000A2A0AD3F7680A3A02EB420293409F439F
:1007C0008B6893401F43F76008E0376902EB4202F1
:1007D00093409F438B6893401F4337610A68102AF8
:1007E00001D0112A20D1124B02689A4217D1936886
:1007F0001B0219D4936843F400039360096810291D
:1008000012D10C490C4A0968B1FBF2F101EB8101EC
:10081000490000E0491E00910029FBD104E0816AF3
:1008200041F020018162012480F824502046F8BD67
:10083000002401403800002040420F0070477047FC
:10084000704700002DE9F04104004FF000057FD013
:10085000A06A002628B9E66284F82460204600F0E9
:1008600081F82046FFF744FEA16AC90600D420B1F2
:10087000A06A40F01000A0626AE0A16A21F48851E9
:1008800041F00201A162334923688B42E16904D13E
:10089000B1F5402F01D14FF40021277B4FF4807C2C
:1008A00041EA470261680A43A168614508D001290D
:1008B00006D0002194F814E0BEF1010F02D00AE046
:1008C0006146F7E7C7B1A76A47F02007A762E76A62
:1008D00047F00107E7625F6827F469470F435F60ED
:1008E000236899681C4F394011439960A16861459C
:1008F0000BD0012909D00CE0DFF860E0A7690EEB0E
:1009000047370F4347F40061E5E7218A0D05A5F558
:1009100080152168CB6A23F470032B43CB622168D6
:1009200089680F4B1940914208D1E662A16A21F013
:10093000020141F00101A162BDE8F081A06A20F04E
:10094000020040F01000A062E06A40F00100E062A6
:100950000120F1E7003C0140FDF7E1FF00E0FFFF6F
:10096000FE0E1FFF70B586B0002506460095019566
:100970000295039500681A4988422ED11949886961
:1009800040F400708861886900F400700490886900
:1009900040F0040088618869694600F00400049012
:1009A0000F200090032001900F4800F0FFFA104C38
:1009B0000E48C4E900058020C4E90250800020618F
:1009C000800060612020C4E90605204600F078FA26
:1009D00008B1FFF74FFE3462666206B070BD0000DA
:1009E00000240140001002400008014008000240BD
:1009F000C80100202DE9F047894604463B490068BC
:100A00003B4F0E1D9046884201D0B84207D1306856
:100A100010F4702F03D001252846BDE8F08794F824
:100A2000240001280CD0012084F824002046FFF780
:100A3000BFFD05004FF0000004D084F82400EBE770
:100A40000220EAE7A16A40F60162914341F4807115
:100A5000A1622168B94218D1326812F4702F14D003
:100A6000A16A41F48011A1623168490505D5A16AE6
:100A700021F4005141F48051A162A16AC9040AD550
:100A8000E16A21F00601E16206E0A26A22F4801226
:100A9000A2624968E9E7E06284F82400216A154807
:100AA0008862216A1448C862216A14480863216870
:100AB0006FF0020008602068816841F480718160F5
:100AC000216843464A464C31206A00F037FA2068D4
:100AD0008168C1F342410729816803D041F4801144
:100AE000816099E741F4A001FAE700000024014089
:100AF000002801403D050008A50500088B050008F9
:100B000010B590F821100022022905D0042181633C
:100B100080F82020012010BD01680B6823F00E032F
:100B20000B6001680B6823F001030B6090F8403004
:100B3000C46B012101FA03F3636080F8211080F88F
:100B40002020104610BD00002DE9F05F90F8211024
:100B50000024022903D004218163012485E0016877
:100B60000A6822F00E020A6001680A6822F0010297
:100B70000A603F4E3E4FB215DFF8F4C0DFF8F09048
:100B8000DFF8ECA0DFF8E8B0DFF8E4E00168783FD8
:100B900013011502ACF1640CA9F15009AAF13C0A49
:100BA000ABF1280BAEF1140E4FF48018B14227D9E7
:100BB000B9420ED0614512D049451DD0514518D0DB
:100BC000594518D0714501D1424615E0294EB14230
:100BD00001D1012210E0274E1436B14201D110227A
:100BE0000AE0244E2836B14206D0224A3C329142D5
:100BF00001D11A4600E02A461E49091F0A602BE06F
:100C0000B94213D0614517D0494522D051451DD076
:100C100059451DD0714501D142461AE0B14202D179
:100C20004FF0807215E0134EB14201D1012210E065
:100C3000104E1436B14201D110220AE00D4E283672
:100C4000B14206D00B4A3C32914201D11A4600E033
:100C50002A46074980394A60012180F82110002185
:100C600080F82010416B01B188472046BDE8F09F15
:100C700080000240080402402DE9F05FC16B0A6861
:100C800001680B68046C4FF0040808FA04F8844DFE
:100C9000844E854FDFF814C2DFF81492DFF814A2F7
:100CA000DFF814B2DFF814E218EA020F65D05FEA49
:100CB000437862D50A68920603D40A6822F00402D7
:100CC0000A60DFF8F0814FF48062016808F11408CF
:100CD00013011402414524D9A9420DD0B1420FD0CD
:100CE000B9421AD0614515D0494515D0514501D1B9
:100CF000120312E0594501D104220EE0714501D1E1
:100D000040220AE06D4D1435A94206D06B4A2832C4
:100D1000914201D11A4600E022466749091F0A6044
:100D200029E0A94213D0B14215D0B94220D0614583
:100D30001BD049451BD0514502D14FF4800217E02A
:100D4000414502D14FF0806212E0594501D10422A1
:100D50000EE0714501D140220AE0584D1435A942F8
:100D600006D0564A2832914201D11A4600E0224666
:100D70004B4908394A60C16A71E04FF0020808FA2D
:100D800004F818EA020F70D05FEA83786DD50A681C
:100D9000920606D40A6822F00A020A60012180F84D
:100DA0002110DFF810814FF40072016808F1140877
:100DB00013011402414524D9A9420DD0B1420FD0EC
:100DC000B9421AD0614515D0494515D0514501D1D8
:100DD000120312E0594501D102220EE0714501D102
:100DE00020220AE0354D1435A94206D0334A283274
:100DF000914201D11A4600E022462F49091F0A609C
:100E000029E0A94213D0B14215D0B94220D06145A2
:100E10001BD049451BD0514502D14FF4001217E0B9
:100E2000414502D14FF0007212E0594501D1022232
:100E30000EE0714501D120220AE0204D1435A9426F
:100E400006D01E4A2832914201D11A4600E02246BD
:100E5000134908394A60002180F82010816A00296E
:100E60001CD0BDE8F05F0847FFE70825A540154204
:100E700014D01A0712D50A6822F00E020A6090F800
:100E80004020C36B012101FA02F25A60816380F8AD
:100E90002110002180F82010016BE0E7BDE8F09FF1
:100EA000080002401C0002403000024044000240A2
:100EB000580002406C000240080402401C0402403A
:100EC00030B560B11A4B026814219A4209D2194B0D
:100ED0001344B3FBF1F18900016417490AE00120D2
:100EE00030BD134B5B421344B3FBF1F18900016445
:100EF0000F490839C163022180F82110136843F6B5
:100F0000F0718B43F0E901142143D0E902452C43F1
:100F100021430469214344692143846921431943DE
:100F2000116000214163012242770177084630BDFC
:100F300008040240F8FFFDBF0000024070B50446FF
:100F400090F82000002501280CD0012084F8200012
:100F500094F821600020012E06D084F8200002259C
:100F6000284670BD022070BD022684F82160A0636F
:100F70002068066826F0010606602046FFF764FB3D
:100F8000E06A00282068016802D041F00E0106E006
:100F900021F0040101602068016841F00A0101604C
:100FA0002068016841F001010160D9E72DE9F84F9F
:100FB000DFF8C891002409F1040A0AF1040B234662
:100FC0000F270BF1040ED1E00125A54006EA05022A
:100FD000AA4276D1DFF8A8C14E68A6EB0C08664598
:100FE0002BD00DDC032E34D005DC36B3012E19D006
:100FF000022E2FD11BE0112E16D0122E2AD119E06D
:10100000B8F5881F19D006DCB8F5803F15D0B8F5C3
:10101000801F1FD111E0B8F5001F0ED0B8F5041FD6
:1010200018D10AE0CB6815E0CB681B1D12E0CB6835
:1010300008330FE0CB680C330CE08B682BB1012B2D
:101040004FF0080303D0456104E0042302E005618A
:1010500000E00023FF2A01D8064601E000F1040663
:101060004FEA840501D9A5F12005D6F8008007FADA
:1010700005FC28EA0C0803FA05F548EA0508C6F855
:1010800000804D68ED0070D53E4DAE6946F001061A
:10109000AE61AD6924F0030605F0010500953A4DF7
:1010A00006EB050CDCF80850A607360F07FA06F821
:1010B00025EA0805DFF8D480404503D14FF0000849
:1010C00025E052E0DFF8C880404502D14FF001082A
:1010D0001DE0DFF8C080404502D14FF0020816E065
:1010E000DFF8B480404502D14FF003080FE0DFF88D
:1010F000AC80404502D14FF0040808E0DFF8A08042
:10110000404502D14FF0050801E04FF0060808FA0B
:1011100006F848EA0508CCF808804D68D9F8006060
:10112000ED034D4601D5164300E096432E604D6811
:10113000DAF80060AD03554601D5164300E096434A
:101140002E604D68DBF80060ED025D4601D5164368
:1011500000E096432E604D68DEF80060AD027546F3
:1011600001D5164300E096432E60641C0A681646BB
:10117000E2407FF429AFBDE8F88F00000004014091
:101180000000111000100240000001400008014062
:10119000000C014000100140001401400018014003
:1011A000001C014001488068704700002C000020AE
:1011B00070B5040011D021684CF6CC40086021685D
:1011C00045F255500860D4E9000141602168A068EB
:1011D0008860FFF7E7FF054609E0012070BD00BF0A
:1011E000FFF7E0FF401B302801D9032070BD2068C5
:1011F000C0680028F4D121684AF6AA2008600020BF
:1012000070BD00684AF6AA21016000207047000006
:101210000248816802781144816070472C000020E8
:10122000074810B5016841F010010160032000F08B
:1012300075F8002000F006F800F024F8002010BD3A
:101240000020024070B50D4D04464FF47A712878A5
:10125000B1FBF0F00A490968B1FBF0F000F0CCFBFB
:1012600048B9102C07D200222146501E00F036F853
:1012700000206C6070BD012070BD00002C000020BB
:10128000380000200C4808B5816941F001018161F6
:10129000816901F001010091C16941F08051C16192
:1012A000C06900F0805000900448416821F0E0617E
:1012B00041F00071416008BD001002400000014093
:1012C000002809DB00F01F02012191404009800045
:1012D00000F1E020C0F8001170470000F0B40E4BA0
:1012E0001B680C46C3F30223C3F10705042D00D984
:1012F0000425191D072901D2002300E0DB1E012669
:1013000006FA05F1491E214099409E40761E16407E
:101310003143F0BC01F0DFBB0CED00E0064900F00A
:10132000070208684FF6FF03184040EA0220034A0C
:1013300010430860704700000CED00E00000FA0563
:1013400010B52CA401461DCC86B08DE81D002DA043
:101350002D4C00680490002004292FD00BDC0129BB
:101360002FD0022928D100F071F96168C1F38131D1
:10137000491C49001EE0082920D010291CD16168B1
:101380002268D20118D5C1F38342C9031DF80200B7
:1013900009D5616804AAC1F34041515C1B4AB2FB04
:1013A000F1F1484301E01A4948436168490203D416
:1013B00040000321B0FBF1F006B010BD00F056F97B
:1013C000FAE7226AC2F30121012903D1920701D56C
:1013D000C803F1E7022905D1626A920702D549F6EE
:1013E0004040E9E70329E7D121688903E4D54FF2BA
:1013F0002440E1E702030405060708090A0B0C0D67
:101400000E0F1010010200000010024000127A00BE
:1014100000093D002DE9F84305460078354CC0072A
:1014200054D0E0690026C00008D4E06940F0805044
:10143000E061E069012600F0805000902E480168CC
:10144000C90512D40168804641F480710160FFF73C
:10145000A9FE074605E000BFFFF7A4FEC01B6428F5
:1014600023D8D8F80000C005F6D5206A10F44070E3
:1014700021D0A98801F4407181421CD0206A1F4903
:10148000012220F440700A6000220A602062C00736
:1014900011D0FFF787FE074641F2883808E000BF09
:1014A000FFF780FEC11B414502D90320BDE8F88348
:1014B000206A8007F4D5206A696820F440700843E8
:1014C00020621EB1E06920F08050E061287880073A
:1014D00005D56068A96820F440400843606028781A
:1014E000C00605D56068696920F480000843606023
:1014F0000020DBE700100240007000404004424240
:101500002DE9F0470F46050061D0434E306800F0EA
:101510000700B84209D2306820F007003843306035
:10152000306800F00700B84251D128683B4C810771
:1015300012D5400703D5606840F4E0606060287809
:10154000000703D5606840F4605060606068A96877
:1015500020F0F000084360602878C00728D0686851
:10156000012810D02168022810D0890700292EDA1E
:10157000616821F0030101436160FFF713FE8046BB
:1015800041F288390DE021688903EFE78901EDE731
:10159000FFF708FEA0EB0801494502D90320BDE88A
:1015A000F0876068696800F00C00B0EB810FEFD144
:1015B000306800F00700B8420BD9306820F007000F
:1015C00038433060306800F00700B84201D0012095
:1015D000E5E72878400705D56068E96820F4E06011
:1015E000084360602878000706D56068296920F400
:1015F000605040EAC100606000F038F86168084A55
:10160000C1F30311515CC8400649086006480068F0
:10161000FFF718FE0020C2E7002002400010024041
:101620000C30000838000020300000200448054934
:1016300000684968044AC1F30221515CC840704700
:1016400038000020001002401C3000080448054902
:1016500000684968044AC1F3C221515CC840704720
:1016600038000020001002401C30000812A185B094
:101670000FC98DE80F0014A0144A00680490516847
:10168000134801F00C03042B10D0082B0ED1C1F32A
:101690008343C9031DF803000AD5516804AAC1F3A6
:1016A0004041515C0A4A5043B0FBF1F005B070472D
:1016B00008494843FAE70000020304050607080941
:1016C0000A0B0C0D0E0F101001020000001002405A
:1016D00000127A0000093D002DE9F84F040070D097
:1016E0002078C04DC00749D06868C0F38100012848
:1016F00007D06868C0F38100022809D16868C00378
:1017000006D52868800339D560680028E7D035E021
:101710006068B0F5803F0BD010B1B0F5A02F11D0AC
:10172000286820F480302860286820F4802002E0B7
:10173000286840F480302860606890B1FFF732FD7F
:1017400006460AE0286840F480202860F0E700BFE1
:10175000FFF728FD801B642873D828688003F7D51D
:101760000CE0FFF71FFD064605E000BFFFF71AFD7E
:10177000801B6428F0D828688003F7D420789A4E1C
:1017800080074FF001094FF0000839D5686810F064
:101790000C0F07D06868C0F38100022809D168687F
:1017A000C00306D42868800714D52069012808D111
:1017B00010E02069B0B1C6F80090FFF7F3FC0746CF
:1017C00005E00AE1FFF7EEFCC01B0228C4D8286838
:1017D0008007F7D52868616920F0F80040EAC10069
:1017E00028600DE0C6F80080FFF7DCFC074604E047
:1017F000FFF7D8FCC01B022823D828688007F7D43D
:10180000207800072CD57948A169D9B1C0F800909B
:10181000FFF7C8FC074604E0FFF7C4FCC01B022822
:101820000FD8686A8007F7D571484FF4FA510068FD
:10183000B0FBF1F0009000BF0098411E0091FAD279
:101840000EE080E0C0F80080FFF7ACFC074604E043
:10185000FFF7A8FCC01B022875D8686A8007F7D478
:101860002078400760D5E8690027C00008D4E869FF
:1018700040F08050E861E869012700F08050009056
:101880005C480168C90513D40168834641F480713E
:101890000160FFF787FC824606E000BFFFF782FC8D
:1018A000A0EB0A0064284ED8DBF80000C005F5D58F
:1018B000E06801280AD008B1052813D0286A20F072
:1018C00001002862286A20F0040002E0286A40F043
:1018D00001002862E06841F2883B98B1FFF762FCA2
:1018E00082460BE0286A40F004002862EEE700BF61
:1018F000FFF758FCA0EB0A0159455AD8286A80071F
:10190000F6D50CE0FFF74EFC824605E0FFF74AFCF7
:10191000A0EB0A0159454CD8286A8007F6D41FB1BC
:10192000E86920F08050E861E06988B36968C1F334
:101930008101022944D00228C6F8608004D0FFF754
:1019400031FC044638E034E0FFF72CFC074604E0A5
:10195000FFF728FCC01B02282BD828688001F7D489
:10196000206AB0F5803F05D16868A16820F4003096
:1019700008436860D4E908010843696821F47411D8
:1019800008436860C6F86090FFF70CFC044606E068
:1019900025E000BFFFF706FC001B022809D82868D5
:1019A0008001F7D51BE000BFFFF7FCFB001B0228FE
:1019B00002D90320BDE8F88F28688001F4D40EE036
:1019C0000128F7D06868226A00F48031914204D17E
:1019D000616A00F47010884201D00120EAE700201B
:1019E000E8E700000010024000004242800442424A
:1019F000380000200070004010B5401EB0F1807F1C
:101A000001D3012010BD4FF0E02460610F21601769
:101A100001F061F80020A06107202061002010BDC6
:101A200010B590F83C20012A22D0012280F83C20F9
:101A3000CA688C6822F4407222434C6822F48062A7
:101A400022430C6822F4006222430C6922F4805283
:101A500022434C6922F400522243C969002322F434
:101A600080420A4301684A6480F83C30002010BD7F
:101A7000022010BD70B590F83C20012A19D0012435
:101A800000F83C4F0222427050F83C3C5A689D6876
:101A900022F070060A684968324325F08005294320
:101AA0005A6050F83C2C9160447000210170084647
:101AB00070BD022070BD10B5040003D094F83D0045
:101AC00010B107E0012010BD002084F83C00204642
:101AD00000F00CF8022084F83D00211D206800F081
:101AE00009FD012084F83D00002010BD08B50C4A16
:101AF00001680C48914207D1816941F4006181611C
:101B0000806900F4006009E0B1F1804F07D1C1693C
:101B100041F00101C161C06900F00100009008BD01
:101B2000002C01400010024070B5044690F83C00C3
:101B3000012817D0012584F83C50022084F83D008C
:101B40002068826822F0770222F47F42826008686F
:101B5000502830D00DDC20284DD005DC98B310285B
:101B60003BD148E0022070BD302844D0402834D119
:101B700039E0602828D0702806D0B0F5805F2CD0DE
:101B8000B0F5005F29D10AE0CB68D1E901212068D6
:101B900000F003FD2068816841F0770109E0CB681F
:101BA000D1E90121206800F0F8FC2068816841F447
:101BB0008041816011E0CA684968206800F0C2FD78
:101BC0005021206807E016E0CA684968206800F0E4
:101BD000CAFD6021206800F0EAFC84F83D50002036
:101BE00084F83C0070BDCA684968206800F0AAFD0E
:101BF00040212068EFE7226801461046EBE700002D
:101C000010B586B0002100910191029103911F4B04
:101C100002681F4802211F4C9A4218D1826942F083
:101C2000400282618069039100F0400004904FF40B
:101C3000D440CDE9000169461748FFF7B7F960685D
:101C400020F0C00040F0E06040F0C0001AE0B2F1C7
:101C5000804F18D1826942F0080282618069039145
:101C600000F00800049040F60840CDE90001694604
:101C70000A48FFF79BF9606820F4407040F0E0608C
:101C800040F44070606006B010BD0000002C0140C0
:101C9000001002400000014000180140000C01400B
:101CA00070B5044690F83C000D4601280DD0012681
:101CB00084F83C60022084F83D0042B1042A18D028
:101CC000082A2AD00C2A4DD139E0022070BD2068A4
:101CD00000F076FC2068816941F00801816120688C
:101CE000816921F004018161206881692A691143B9
:101CF00011E0206800F094FC2068816941F40061E3
:101D000081612068816921F4806181612068816935
:101D10002A6941EA0221816124E0206800F0B6FCD2
:101D20002068C16941F00801C1612068C16921F0E2
:101D30000401C1612068C1692A69114311E020686A
:101D400000F0D8FC2068C16941F40061C1612068DD
:101D5000C16921F48061C1612068C1692A6941EAD1
:101D60000221C16184F83D60002084F83C0070BD10
:101D700010B5040003D094F83D0010B107E0012035
:101D800010BD002084F83C00204600F00CF8022032
:101D900084F83D00211D206800F0ACFB012084F890
:101DA0003D00002010BD704710B5044600680122B8
:101DB00000F0E6FB0B492068884202D00A498842BD
:101DC00003D1416C41F4004141642068816801F015
:101DD0000701062903D0016841F0010101600020DC
:101DE00010BD0000002C01400034014010B5044635
:101DF0000068416994F83920C1F3C011212A0BD140
:101E000051B1416921F080014161206B08B1FEF7B9
:101E100077FE204600F033FD2068416994F83A20AF
:101E2000C1F38011222A0BD151B1416921F0400147
:101E30004161606B08B1FEF763FE204600F011FDC2
:101E4000002010BD7047000070B50268044610689D
:101E5000D168536910F00F0F50D003F0010501F461
:101E6000907635435DD0C20705D0CA0503D5E26B35
:101E700042F00102E263420705D5DA0703D0E26BC4
:101E800042F00202E263820705D5DA0703D0E26B73
:101E900042F00402E263020705D5DA0703D0E26BE1
:101EA00042F00802E263E26B002A33D0800604D5D8
:101EB000880602D5204600F0EBFC20684069E16B03
:101EC000C0F38010090700D428B3204600F0C9FCF5
:101ED0002068416949061AD5416921F040014161F4
:101EE000606BA0B11B494163606BFEF72DFE0028BB
:101EF00010D0606B416BBDE870400847830610D579
:101F00008B060ED52046BDE8704000F0C1BC2046CF
:101F1000FFF798FF70BD2046FFF794FF0020E063B5
:101F200070BD030606D50B0604D52046BDE87040FB
:101F300000F056BD4006F3D54806F1D5D1682046DD
:101F400021F04001D160202184F8391000F03AF9E5
:101F500070BD00008B27000870B5040004D094F811
:101F60003900002510B106E0012070BD84F838501A
:101F7000204600F023F8242084F839002068C16846
:101F800021F40051C160204600F0CEFC20680169B8
:101F900021F4904101612068416921F02A014161E9
:101FA0002068C16841F40051C160E563202084F8D5
:101FB000390084F83A00002070BD0000F0B585B00B
:101FC00000240646009401940294039400682F496B
:101FD000884258D12E48C16941F40031C161C169BC
:101FE00001F400310491816941F02001816180692F
:101FF000284D00F020000490202000900220019045
:102000000320039069462846FEF7D0FF4020CDE923
:102010000004694628460294FEF7C8FF1E4841683E
:1020200041F0E06141F0080141601D4D1B488027EF
:10203000C5E90004C5E902472C616C61AC61284622
:10204000EC61FEF73DFF08B1FEF714FB75636E62AD
:102050001248144D143001C5102091C5114845F89F
:1020600010496C61AC61EC61FEF72AFF08B1FEF724
:1020700001FB35630022114626206E62FFF72EF920
:102080002620FFF71DF905B0F0BD00000044004018
:102090000010024000140140000001406C000240AA
:1020A0000C02002050020020F8B5044690F83A00D7
:1020B00020283CD1C1B3BAB394F83800012836D0F7
:1020C000012084F83800A162A2850025E563222062
:1020D00084F83A00636B17489862636B1648D862BD
:1020E000636B16481863606B134645630846666B5E
:1020F000216802463046091DFEF720FF206801686E
:102100004168009184F83850C16841F48071C16021
:102110002068416941F0010141612068416941F055
:10212000400141610020F8BDFFE70120FBE70220EC
:10213000F9E70000E5270008212800089B27000890
:102140007047704770B5044690F83900202830D1A8
:1021500069B362B394F8380001282AD0012084F8CA
:1021600038002162A284E2840025E563212084F8FE
:102170003900236B10489862236B1048D862236B98
:102180000F481863206B134645632668206B321D89
:10219000FEF7D4FE21686FF04000086084F83850E4
:1021A0002068416941F080014161002070BD01203B
:1021B00070BD022070BD00002B28000859280008BF
:1021C0009B27000870477047FEE70000FEB500241B
:1021D00018480094019416490294016089158160A1
:1021E000012505730475042606614FF460214460DF
:1021F000C161FEF727FBCDE90045022469460D4881
:102200000294FEF79DFACDE9005469460948FEF7AD
:1022100097FA00940324694606480194FEF790FA61
:10222000CDE9004669460348FEF78AFAFEBD000084
:102230000024014040000020154808B5816941F0A4
:1022400010018161816901F010010091816941F003
:1022500004018161816901F004010091816941F00B
:1022600040018161816901F040010091816941F083
:1022700008018161816901F008010091816941F0E3
:1022800020018161806900F02000009008BD0000FD
:102290000010024010B596B000240F9410941194D1
:1022A000129413941C2168461494FDF774FF2021A6
:1022B00007A8FDF770FF2848264901604721C0E9BB
:1022C000011444F61F61C0E9031444618461FFF7FF
:1022D000F2FB4FF480500F900FA91F48FFF724FC2A
:1022E0001D48FFF745FD139413A91B481494FFF7ED
:1022F000C1FB6020CDE9000402940394049405948A
:102300000022694614480694FFF7CAFC40F2DC50EC
:102310000190042269461048FFF7C2FC0822694672
:102320000D48FFF7BDFC0C2269460B48FFF7B8FCCF
:102330000794089409944FF400500A94CDE90B4097
:1023400007A905480E94FFF76BFB0348FFF758FCFD
:1023500016B010BD002C01407C00002010B58EB0DE
:1023600000240794089409940A940B941C2168464D
:102370000C94FDF710FF1C484FF08041016047218D
:10238000C0E9011444F61F61C0E903148461FFF73A
:1023900092FB4FF48050079007A91348FFF7C4FB46
:1023A0001148FFF7E5FC0B940BA90F480C94FFF7BD
:1023B00061FB6020009040F2DC50CDE90104042272
:1023C000694609480494FFF76BFC082269460648F1
:1023D000FFF766FC0C2269460348FFF761FC0248E0
:1023E000FFF70EFC0EB010BDBC00002010B5104C65
:1023F0000E480C2120604FF4E13060600020A060A6
:10240000E060C4E90401A061E0612046FFF7A4FD9B
:102410002068C16841F01001C160064804F1400124
:1024200082782046BDE81040FFF73EBE00440040E1
:10243000FC00002000000020FEE770477047704756
:10244000FEF7E6BE30B595B028216846FDF7A3FE3D
:1024500014210AA8FDF79FFE18210FA8FDF79BFE87
:102460000920012100904FF480300024049106914E
:10247000CDE901040225CDE907504FF4E0100990A1
:102480006846FFF729F90F20CDE90A056802CDE972
:102490000C4002210AA80E94FFF732F8A80311900D
:1024A0000F950FA8FEF7B6FF15B030BD0D480168B7
:1024B00041F00101016041680B4A1140416001682F
:1024C0000A4A11400160016821F4802101604168DD
:1024D00021F4FE0141604FF41F0181600449C003F3
:1024E00008607047001002400000FFF8FFFFF6FE92
:1024F00008ED00E0F0B502681C4B1D4D1D4E1E4F4F
:102500001E4C4FF0804C984209D0A04207D0604545
:1025100005D0A84203D0B04201D0B84204D122F085
:10252000700E4A6842EA0E02984209D0A04207D0D3
:10253000604505D0A84203D0B04201D0B84203D1D3
:1025400022F44075CA682A434D6922F080022A436A
:1025500002608A68C2620A688262984201D0A04220
:1025600001D10969016301214161F0BD002C0140E5
:102570000004004000080040000C0040003401400E
:1025800010B501F01F030121046A99408C430462D5
:10259000016A9A401143016210BD10B5846842EA95
:1025A000032224F47F440A432243826010BD8268E0
:1025B00022F070020A4342F0070181607047000078
:1025C000F0B5026A22F001020262036A426884697D
:1025D000124E24F073050C682C4323F002058B681F
:1025E0002B430D4DA84201D0B04205D123F008077E
:1025F000CB683B4323F00403A84201D0B04205D18D
:102600004D6922F4407215438A692A43426084610D
:10261000496841630362F0BD002C01400034014071
:10262000F0B5026A22F010020262026A436884690D
:102630000D6824F4E64444EA05248D6822F0200263
:1026400042EA05120F4D104EA84201D0B04206D109
:10265000CF6822F0800242EA071222F04002A8422C
:1026600001D0B04207D14D6923F4406343EA8503AA
:102670008D6943EA8503436084614968816302622E
:10268000F0BD0000002C014000340140F0B5026AAA
:1026900022F480720262026A4368C46922F4007202
:1026A00024F073050C68124E2C438D6842EA052213
:1026B0000E4DA84201D0B04206D1CF6822F400628C
:1026C00042EA072222F48062A84201D0B04207D138
:1026D0004D6923F4405343EA05138D6943EA05131A
:1026E0004360C4614968C1630262F0BD002C0140CF
:1026F0000034014030B5026A22F480520262046A5A
:102700004268C3690D6823F4E64343EA05238D68F4
:1027100024F4005444EA0534084DA84202D0084D80
:10272000A84204D14D6922F4804242EA85124260F7
:10273000C36149680164046230BD0000002C01409F
:102740000034014010B5036A046A24F001040462F5
:10275000846924F0F00444EA021423F00A020A43D4
:102760008461026210BD10B5036A23F01003036296
:102770008369046A23F4704343EA023224F0A0031D
:1027800043EA01118261016210BD10B5406A002167
:10279000C185C184FFF756FB10BD70B5446A20683F
:1027A000406994F83910C0F3C0100025212904D1E4
:1027B00018B1E584204600F062F82068406994F87A
:1027C0003A10C0F38010222904D118B1E5852046C3
:1027D00000F047F8E06B40F01000E0632046FFF7A0
:1027E00031FB70BD10B50146406A09680968890669
:1027F00013D40021C1850168CA6822F48072CA60BE
:1028000001684A6922F001024A6101684A6922F0BE
:1028100040024A61202180F83A10FFF791FC10BD78
:1028200010B5406AFFF78DFC10BD10B50146406A37
:102830000968096889060CD40021C18401684A69C5
:1028400022F080024A610068C16841F04001C16025
:1028500010BDFFF7B7FC10BD10B5406AFFF7B3FC21
:1028600010BD0168CA6822F49072CA6001684A69A2
:1028700022F001024A61202180F83A107047016875
:10288000CA6822F0C002CA60202180F8391070475F
:1028900010B590F83A10222901D0022010BD8168AD
:1028A000B1F5805F11D00169002901681FD0496826
:1028B00001F07F03816A4A1C82620B70C18D491E40
:1028C0000904090CC18518D02BE00269816A002A2D
:1028D0000268526805D0D2B20A80816A491C8162BE
:1028E000ECE7C2F308020A80816A891CF7E74A68AC
:1028F000816A4B1C83620A70E0E70168CA6822F0B3
:102900002002CA600168CA6822F48072CA60016845
:102910004A6922F001024A61202180F83A10FFF74B
:102920000FFC002010BD00002DE9F04104460068B6
:102930000169E26821F44051114301612169A068F5
:102940000843616908432168CA6841F20C639A43ED
:102950000243CA6020684169A26921F440711143B1
:1029600041611E49206864253226884202D1FEF763
:102970006DFE01E0FEF75AFE00EBC00101EB001115
:1029800060686FF018078000B1FBF0F2B2FBF5F25F
:10299000B1FBF0F37A4303EB8202B1FBF0F306EBF9
:1029A0000212B2FBF5F2B3FBF5F302F0F00202EB18
:1029B0000312B1FBF0F3B1FBF0F0B0FBF5F078439C
:1029C00003EB800006EB0010B0FBF5F0216800F08F
:1029D0000F0010448860BDE8F0810000003801401D
:1029E00090F83910212901D0022070478168B1F593
:1029F000805F016A0BD04A1C02620268097851604C
:102A0000C18C491E0904090CC1840ED017E0098845
:102A10000268C1F30801516001690029016A02D00E
:102A2000491C0162ECE7891CFBE70168CA6822F0D7
:102A30008002CA600068C16841F04001C1600020A6
:102A4000704700001C4808B500680168C1F3001118
:102A500019B3016841680091016840681648FFF7A2
:102A6000C5F916480068406815490A78111A1548D2
:102A7000017001781E290CD3134903780B4413F815
:102A8000013C252B05D103780B4413F81E3C242B65
:102A900008D00D490848FFF707FBBDE80840064885
:102AA000FFF7D2B9094B01221A700078084408498F
:102AB0001E380860F1E70000FC0000200C02002036
:102AC000020000202A0000203C010020010000201C
:102AD00010000020FEE70907090E002804DB00F1C2
:102AE000E02080F80014704700F00F0000F1E020B3
:102AF00080F8141D704702E008C8121F08C1002AA0
:102B0000FAD170477047002001E001C1121F002A6E
:102B1000FBD1704708B5FEF783FBFFF793FCFFF787
:102B20008BFBFE48416941F001014161406900228F
:102B300000F00100009011460B20FEF7CFFB0B20A8
:102B4000FEF7BEFB002211461020FEF7C7FB102047
:102B5000FEF7B6FB002211461120FEF7BFFB112045
:102B6000FEF7AEFBFFF732FBFFF794FBFFF7F6FB38
:102B7000FFF73CFCEB48EA49016004214160FA217F
:102B80008160FEF715FBE84C15E0607801280FD155
:102B900000206070206940783038092801D8012071
:102BA0002070E049A278CC31A1F14000FFF77CFA17
:102BB000DC48FEF726FB20780028E6D0D948FEF74F
:102BC00020FBD8483038FDF757FDD8490422A1F53D
:102BD000AA70FDF70FFFD34800210C30FFF7E4F88F
:102BE000D04804210C30FFF7DFF8CE4808210C3024
:102BF000FFF7DAF8CB480C210C30FFF7D5F8C948BD
:102C000004214C30FFF7D0F8C64808214C30FFF7BC
:102C1000CBF8DFF81CA340F2DC50CAF800000AF140
:102C2000040BCBF800000BF104010860091D0860DB
:102C30004FF08049C9F83800C9F83C00BA49B94892
:102C4000627925318C30FFF77DFAA046B548FEF752
:102C5000D8FA98F801000128F8D10020434688F8F6
:102C60000100D8F8102050783038C5B288F80350E9
:102C7000D1785079303901EBC10404EB011100EB3C
:102C800081001179AB4C01EB810104EB4101084457
:102C90005861D179567A303901EBC10707EB011140
:102CA00006EB8101167A06EB860604EB46063144F4
:102CB0009961D67A577B303E127B06EBC60C0CEB43
:102CC000061602EB820207EB860604EB4202B418FA
:102CD000C8F81C40884201D9012700E000274218AB
:102CE00088F80670C82A02D94FF0010C01E04FF0B5
:102CF000000C88F807C0642801D9012600E00026EE
:102D000088F80860642901D9012300E0002388F8CD
:102D1000093035B1012D16D0022D16D0032D23D147
:102D20002BE0854D13E003231CE00BB127B101E03C
:102D3000042317E0012315E0022313E0002BF7D151
:102D4000002FF9D1F6E77C4B19E04FF07E55C8F81B
:102D50000C50BCF1000F02D0002EE6D1E3E7002EAC
:102D6000ECD0E0E788F8043098F80430062B74D2F1
:102D7000DFE803F07309387495B94FF07E53C8F853
:102D80000C300523EEE7694D6C4F103D002628609E
:102D90006860C0F164000844A860E860D8F80C00DE
:102DA000CDF8000055F8260000EB800107EB41004C
:102DB000FDF7A0FA0099FDF7F9F9FDF7B1FA00F275
:102DC000DC5045F82600761C042EEBDB04EB840176
:102DD0004FF4FA7000EB4101C8F81C102868CAF8DB
:102DE0000000BFE0514DC0F16400103D084429606F
:102DF000C5E90110E860D8F80C00504F002600909B
:102E000055F8260000EB800107EB4100FDF772FA50
:102E10000099FDF7CBF9FDF783FA00F2DC5045F895
:102E20002600761C042EEBDB04EB84014FF4FA70D1
:102E300000EB4100C8F81C002A68CAF800206A6844
:102E4000CBF800203A49AA680C310A60091FEA68E9
:102E50000A60C9F83800C9F83C0090E0334D374F9C
:102E6000103D643A2A60C5E90121E960D8F80C00F8
:102E70000026009055F8260000EB800007EB40008C
:102E8000FDF738FA0099FDF791F9FDF749FA00F2DC
:102E9000DC5045F82600761C042EEBDBC4E7234DFE
:102EA000C0F1C800103D643A2A60C5E90120E8601D
:102EB000D8F80C00214F0026CDF8000055F8260068
:102EC00000EB800007EB4000FDF714FA0099FDF7D6
:102ED0006DF9FDF725FA00F2DC5045F82600761C66
:102EE000042EEBDBA0E7114DC0F1C801103D134FDC
:102EF000C5E90001C5E90201D8F80C0000260090E0
:102F000055F8260000EB800107EB4100FDF7F2F9D0
:102F10000099FDF74BF9FDF703FA11E000100240AC
:102F200000300040700000200000002094010020CC
:102F3000342C0140F0FDFFFFCDCC4C3F18FCFFFFCF
:102F400000F2DC5045F82600761C042ED8DB04EB9A
:102F500084014FF4FA7000EB4101C8F81C102A6894
:102F6000CAF800206A68CBF800202448AA680260EA
:102F7000001FEA680260C9F83810C9F83C10204EFA
:102F800000244FF0663706F1140500BF56F8240000
:102F9000FDF7B9F93A461B4BFDF73AF905EBC402C8
:102FA000641CC2E90001042CF0DBD5E90401002215
:102FB0004C464B46FDF7CEF901D2312000E03020DF
:102FC0001149002223464870D5E90601FDF7C2F9F0
:102FD00001D2312000E030200B49C870084898F831
:102FE00005209838FFF7AEF8054998F802205839BF
:102FF000A1F14000FFF758F828E60000402C0140FE
:103000009401002066664A3F200000200000000076
:103010000000000001020304060708090000000088
:103020000102030444300008000000203C000000BE
:10303000F62A0008803000083C0000205C060000F2
:10304000062B0008000046000005000000000000FC
:103050000000803F000000000000000000000000B1
:103060000000000024303A302524393A3925000088
:1030700001000000100000000000000000A24A044F
:0400000508000131BD
:00000001FF
